:10000000B0C1000011C70000E4C60000B7C6000080
:100010008AC600005DC6000030C6000003C60000AE
:10002000D6C50000CFC10000CDC10000CBC100008B
:10003000C9C10000C7C10000C5C10000C3C10000A4
:10004000C1C10000BFC10000BDC10000BBC10000B4
:10005000B9C10000B7C10000B5C100006EC5000005
:10006000B1C10000F0C40000C5C40000ABC1000075
:10007000A9C10000A7C10000A5C10000A3C10000E4
:10008000A1C100009FC100009DC100009BC10000F4
:1000900099C1000097C1000095C10000F0C60000A2
:1000A00091C100008FC100008DC100008BC1000014
:1000B00089C1000087C1000085C1000083C1000024
:1000C00081C100007FC100007DC100007BC1000034
:1000D00079C1000077C1000075C1000073C1000044
:1000E00071C10000AF08B208A108A508AB08E90873
:1000F000B608BA08C008C408C808CE08D208D6088E
:10010000E908DC08E008E4080000200023002600DD
:1001100029002C002F00320000010000030106011D
:10012000090100002100240027002A002D003000D2
:10013000330001010000040107010A010000220050
:10014000250028002B002E003100340002010000A1
:10015000050108010B010505050507050808080844
:10016000020202020A0A080804040404010101014F
:10017000010101010303030303030303040707074A
:100180000C0C0C0C0C0C0C0C0202020206060606EF
:10019000060606060B0B0B0B0B0B0B0B01021020BC
:1001A00020080810204010204080020102010804AD
:1001B0000201010204081020408080402010080441
:1001C000020180040201804020100804020108049A
:1001D00002010102040810204080010204081020DE
:1001E000408000000A0B02090C0D0E0807030401F1
:1001F00000000000000000000000000000000000FF
:1002000000000000000000000000000000001211CB
:1002100010000000000000000000000000000000CE
:100220000000000000000000726561644D454D282B
:10023000293A2076616C756520726561642077616A
:10024000732065697468657220746F6F20686967D0
:1002500068206F7220746F6F206C6F772E2020568D
:10026000616C75653A200056616C75652072656138
:100270006420696E746F2076666F3A2000463A20DB
:100280006F66660072783A200043616E6E6F74206C
:10029000636F6E74696E7565210044616D6E204EEA
:1002A0006F204652414D0044616D6E2E204E6F20EE
:1002B0004672616D2E202043616E6E6F7420436F15
:1002C0006E74696E7565210053657269616C206991
:1002D0006E697469616C697A6564005772697465E6
:1002E00020746F2056464F41727261792072657397
:1002F000756C7420636F64653A200029002C0077C8
:10030000726974654D454D282000463A20006F6E95
:1003100020006F6666002020202020202020202042
:100320002020202020202020202000202020487A6B
:10033000002E0043570033304D0035303020487ACE
:100340000031303020487A00353020487A200031A2
:100350003020487A2000303120487A2000005C1399
:10036000C60C11241FBECFEFD1E2DEBFCDBF00E02F
:100370000CBF12E0A0E0B2E0ECEFF2E300E00BBF54
:1003800002C007900D92AE3CB107D9F725E0AEEC64
:10039000B2E001C01D92AA37B207E1F711E0C0EB4D
:1003A000D1E000E006C021970109802FFE010E94E4
:1003B0002216CF3AD10780E00807A9F70E94F60C71
:1003C0000C946D191DCECF92DF92EF92FF920F9396
:1003D0001F93CF93DF936C017A018B01C0E0D0E0D3
:1003E000CE15DF0589F0D8016D918D01D601ED9113
:1003F000FC910190F081E02DC6011995892B11F433
:100400007E0102C02196ECCFC701DF91CF911F91F1
:100410000F91FF90EF90DF90CF900895FC01918DA8
:10042000828D981761F0828DDF01A80FB11D5D9656
:100430008C91928D9F5F9F73928F90E008958FEFC4
:100440009FEF0895FC01918D828D981731F0828D78
:10045000E80FF11D858D90E008958FEF9FEF0895CF
:10046000FC01918D228D892F90E0805C9F4F821B33
:1004700091098F73992708958DE693E0F1DF21E0CC
:10048000892B09F420E0822F0895FC01848DDF017F
:10049000A80FB11DA35ABF4F2C91848D90E00196F7
:1004A0008F739927848FA689B7892C93A089B189E6
:1004B0008C9180648C93938D848D981306C00288F0
:1004C000F389E02D80818F7D80830895EF92FF92E4
:1004D0000F931F93CF93DF93EC0181E0888F9B8D67
:1004E0008C8D981305C0E889F989808185FD23C02A
:1004F000F62E0B8D10E00F5F1F4F0F731127E02EAC
:100500008C8DE8120BC00FB607FCFACFE889F98989
:10051000808185FFF5CFCE01B8DFF2CF8B8DFE0154
:10052000E80FF11DE35AFF4FF0820B8FEA89FB8938
:100530008081806207C0EE89FF896083E889F9893C
:1005400080818064808381E090E0DF91CF911F9172
:100550000F91FF90EF900895CF93DF93EC01888D7A
:100560008823C1F0EA89FB89808185FD05C0A889BF
:10057000B9898C9186FD0EC00FB607FCF5CF80813E
:1005800085FFF2CFA889B9898C9185FFEDCFCE0187
:100590007CDFE8CFDF91CF91089580E090E0892B58
:1005A00019F06ADF811125C080E090E0892B41F0CD
:1005B00080E090E0892B21F00E94000081111CC096
:1005C00080E090E0892B41F080E090E0892B21F0E1
:1005D0000E940000811113C080E090E0892BA1F0FF
:1005E00080E090E0892B81F00E94000081110AC018
:1005F00008950E940000D8CF0E940000E1CF0E9421
:100600000000EACF0C94000008953FB7F894809161
:10061000600390916103A0916203B091630326B5DA
:10062000A89B05C02F3F19F00196A11DB11D3FBF2A
:10063000BA2FA92F982F8827820F911DA11DB11DB8
:10064000BC01CD0142E0660F771F881F991F4A95B4
:10065000D1F70895089585ED8093BC008091BC008A
:1006600084FDFCCF10926603089540911203262F5B
:1006700030E0240F311D21323105DCF42091660376
:100680002430C9F4FC0180E090E0861758F43091E2
:1006900012032191DC01A051BD4FA30FB11D2C937A
:1006A0000196F3CF80911203680F6093120380E0EC
:1006B000089581E0089582E00895089581E090E032
:1006C00030916A0320916903321710F480E090E0C2
:1006D000919581959109089580916A03909169039C
:1006E000891730F48F5F80936A0380E090E008956B
:1006F0008FEF9FEF08958091690390E020916A0346
:10070000821B91090895CF92DF92EF92FF920F938F
:100710001F93CF93DF937C01262F972F8A0180911F
:10072000EF02882391F0C62FD72F6E01C40ED51E7D
:10073000CC15DD0569F06991D701ED91FC9101902F
:10074000F081E02DC7011995F3CF642F822F8DDF43
:10075000C801DF91CF911F910F91FF90EF90DF9033
:10076000CF900895CF93DF931F92CDB7DEB7698303
:100770002091EF022223D1F020916703203240F034
:1007800021E030E0FC013383228380E090E014C05C
:1007900080916803E82FF0E0E153FD4F9981908349
:1007A0008F5F809368038093670304C061E0CE018C
:1007B00001965BDF81E090E00F90DF91CF9108958B
:1007C0000E943A190F931F93CF93DF93EC01888116
:1007D0009981009729F02A813B812617370788F4F1
:1007E0008B016F5F7F4F0E945618009761F09983CD
:1007F00088831B830A832C813D81232B11F4FC0108
:10080000108281E001C080E0DF91CF911F910F91B4
:100810000895CF93DF93EC0188819981009711F0BF
:100820000E94BE17198218821D821C821B821A82A6
:10083000DF91CF910895EF92FF920F931F93CF9383
:10084000DF93EC018B016115710549F0CB010E942A
:1008500055197C01BC01CE01B5DF811103C0CE0169
:10086000D8DF07C0FD82EC82B801888199810E949F
:100870004E19CE01DF91CF911F910F91FF90EF9014
:100880000895EF92FF920F931F93CF93DF93EC01A4
:100890007B018A01BA0196DF811103C0CE01B9DF65
:1008A00007C01D830C83B701888199810E94471975
:1008B000CE01DF91CF911F910F91FF90EF9008959E
:1008C000FC01808191810C94BE17FC011182108281
:1008D00013821282158214826115710549F0FB01A1
:1008E00001900020E9F73197AF01461B570BC9CFA4
:1008F0000895EF92FF920F931F93CF93DF938C0194
:100900007B01C0E0D0E0F701EC0FFD1F649166238E
:1009100061F0D801ED91FC910190F081E02DC801CA
:100920001995892B11F02196EECFCE01DF91CF9151
:100930001F910F91FF90EF9008956115710579F067
:10094000FB0101900020E9F73197AF01461B570BDF
:10095000DC01ED91FC910280F381E02D199480E09F
:1009600090E008954F925F926F927F92EF92FF9284
:100970000F931F93CF93DF93CDB7DEB7A1970FB639
:10098000F894DEBF0FBECDBF7C01FA01CB0119A2E6
:10099000223008F42AE08E010F5D1F4F422E512CA9
:1009A000612C712CBF01A30192010E940016F90174
:1009B000CA01015011096A3014F4605D01C0695C1C
:1009C000D8016C93232B242B252B61F7B801C70189
:1009D000B4DFA1960FB6F894DEBF0FBECDBFDF9196
:1009E000CF911F910F91FF90EF907F906F905F904C
:1009F0004F9008951F920F920FB60F9211240BB6CD
:100A00000F922F933F934F935F936F937F938F93A7
:100A10009F93AF93BF93EF93FF938DE693E035DD04
:100A2000FF91EF91BF91AF919F918F917F916F91C6
:100A30005F914F913F912F910F900BBE0F900FBE82
:100A40000F901F9018951F920F920FB60F921124BE
:100A50000BB60F922F938F939F93EF93FF93E09199
:100A60007D03F0917E038081E0918303F091840304
:100A700082FD12C09081809186038F5F8F732091D9
:100A80008703821751F0E0918603F0E0E359FC4FB1
:100A9000958F8093860301C08081FF91EF919F9194
:100AA0008F912F910F900BBE0F900FBE0F901F9044
:100AB00018958F929F92AF92BF92CF92DF92EF9252
:100AC000FF926B017C01A1DD4B015C01C114D104DB
:100AD000E104F104E9F099DDDC01CB018819990901
:100AE000AA09BB09883E9340A105B10578F321E02E
:100AF000C21AD108E108F10888EE880E83E0981E3A
:100B0000A11CB11CC114D104E104F10421F7DECF12
:100B1000FF90EF90DF90CF90BF90AF909F908F901D
:100B200008952FB7F89460915C0370915D038091F4
:100B30005E0390915F032FBF08951F920F920FB62F
:100B40000F9211242F933F938F939F93AF93BF9353
:100B500080915C0390915D03A0915E03B0915F036F
:100B600030915B0323E0230F2D3720F40196A11D64
:100B7000B11D05C026E8230F0296A11DB11D2093CB
:100B80005B0380935C0390935D03A0935E03B0933B
:100B90005F038091600390916103A0916203B09123
:100BA00063030196A11DB11D8093600390936103BF
:100BB000A0936203B0936303BF91AF919F918F9114
:100BC0003F912F910F900FBE0F901F9018951F927D
:100BD0000F920FB60F9211240BB60F922F933F93E3
:100BE0004F935F936F937F938F939F93AF93BF9335
:100BF000EF93FF93E0910F02F09110021995FF918E
:100C0000EF91BF91AF919F918F917F916F915F9184
:100C10004F913F912F910F900BBE0F900FBE0F90F1
:100C20001F9018951F920F920FB60F9211240BB6BA
:100C30000F922F933F934F935F936F937F938F9375
:100C40009F93AF93BF93EF93FF93E0910D02F091C9
:100C50000E021995FF91EF91BF91AF919F918F91E6
:100C60007F916F915F914F913F912F910F900BBEAC
:100C70000F900FBE0F901F9018951F920F920FB6F6
:100C80000F9211240BB60F922F933F934F935F93C4
:100C90006F937F938F939F93AF93BF93EF93FF9344
:100CA000E0910302F09104021995FF91EF91BF9139
:100CB000AF919F918F917F916F915F914F913F91F4
:100CC0002F910F900BBE0F900FBE0F901F90189595
:100CD0001F920F920FB60F9211240BB60F922F9303
:100CE0003F934F935F936F937F938F939F93AF93B4
:100CF000BF93EF93FF93E0910102F09102021995E7
:100D0000FF91EF91BF91AF919F918F917F916F91E3
:100D10005F914F913F912F910F900BBE0F900FBE9F
:100D20000F901F9018951F920F920FB60F921124DB
:100D30000BB60F922F933F934F935F936F937F93D5
:100D40008F939F93AF93BF93EF93FF93E0910B0229
:100D5000F0910C021995FF91EF91BF91AF919F9186
:100D60008F917F916F915F914F913F912F910F9054
:100D70000BBE0F900FBE0F901F9018951F920F92F1
:100D80000FB60F9211240BB60F922F933F934F93F0
:100D90005F936F937F938F939F93AF93BF93EF93E3
:100DA000FF93E0910902F0910A021995FF91EF91EA
:100DB000BF91AF919F918F917F916F915F914F9173
:100DC0003F912F910F900BBE0F900FBE0F901F9071
:100DD00018951F920F920FB60F9211240BB60F9217
:100DE0002F933F934F935F936F937F938F939F9333
:100DF000AF93BF93EF93FF93E0910702F091080246
:100E00001995FF91EF91BF91AF919F918F917F9134
:100E10006F915F914F913F912F910F900BBE0F906B
:100E20000FBE0F901F9018951F920F920FB60F9242
:100E300011240BB60F922F933F934F935F936F93B1
:100E40007F938F939F93AF93BF93EF93FF93E09123
:100E50000502F09106021995FF91EF91BF91AF91B4
:100E60009F918F917F916F915F914F913F912F91C2
:100E70000F900BBE0F900FBE0F901F9018951F92F2
:100E80000F920FB60F9211240BB60F922F933F9330
:100E90004F935F936F937F938F939F93AF93BF9382
:100EA000EF93FF938091B900887F803609F49CC04E
:100EB00068F5883209F45BC090F4803109F454C0BD
:100EC00038F4882309F4F6C0883009F44DC0F5C021
:100ED000883109F44CC0803209F45DC0EEC0803422
:100EE00009F468C048F4803309F455C0883309F028
:100EF000E4C080933703D8C0803509F44FC08835EB
:100F000009F45DC0883409F0D8C0D6C0883909F426
:100F1000C7C0A8F4883709F467C038F4883609F4E4
:100F200063C0803709F460C0C8C0883809F4B8C00D
:100F3000803909F45FC0803809F0BFC05BC0803BD6
:100F400009F486C038F4803A09F466C0883A09F496
:100F50007FC0B3C0803C09F4A7C0883C09F4A4C09A
:100F6000883B09F48AC0A9C080915A0310C09091AF
:100F7000590380915803981770F5E091590381E067
:100F80008E0F80935903F0E0E85CFC4F80818093E2
:100F9000BB0085EC86C0809337038EC0E091590377
:100FA00081E08E0F809359038091BB00F0E0E85CF4
:100FB000FC4F808390915903809158036EC0E0915B
:100FC000590381E08E0F809359038091BB00F0E0BC
:100FD000E85CFC4F80838091650381116DC081E0E6
:100FE0008093640384EA61C083E080936603109277
:100FF0003603CFCF80913603803208F051C0E091A4
:10100000360381E08E0F809336038091BB00F0E0C1
:10101000EA5EFC4F8083BDCF85EC8093BC001092CC
:10102000660380913603803230F4E0913603F0E0BD
:10103000EA5EFC4F10826091360370E0E091140389
:10104000F091150386E193E019951092360335C0AF
:1010500084E0809366031092130310921203E091D0
:101060001003F0911103199580911203811105C0AD
:1010700081E0809312031092F002E091130381E06B
:101080008E0F80931303F0E0E051FD4F8081809339
:10109000BB009091130380911203981708F479CF45
:1010A00085E88093BC0009C085EC8093BC00109259
:1010B000660303C010923703CEDAFF91EF91BF9120
:1010C000AF919F918F917F916F915F914F913F91E0
:1010D0002F910F900BBE0F900FBE0F901F90189581
:1010E000DC019FB7F8941396ED91FC911497208141
:1010F00015968C91822B80839FBF0895DC012FB7BA
:10110000F8941396ED91FC911497908115968C911B
:101110008095892380832FBF08958EBD00000DB474
:1011200007FEFDCF8EB5089590E0FC013197E231C6
:10113000F10508F04EC08827EE58FF4F8F4F0C94F2
:101140002216809180008F7703C0809180008F7D70
:1011500080938000089580918000877FF9CF84B5C7
:101160008F7702C084B58F7D84BD08958091B000D3
:101170008F7703C08091B0008F7D8093B000089579
:10118000809190008F7707C0809190008F7D03C081
:1011900080919000877F8093900008958091A000B7
:1011A0008F7707C08091A0008F7D03C08091A00041
:1011B000877F8093A0000895809120018F7707C0DA
:1011C000809120018F7D03C080912001877F8093D3
:1011D00020010895CF93DF93282F30E0F901EE51DD
:1011E000FE4F8491F901E456FE4FD491F901EA5A79
:1011F000FE4FC491CC2389F0811196DFEC2FF0E0F3
:10120000EE0FFF1FE85FFE4FA591B491EC91ED2327
:1012100081E090E021F480E002C080E090E0DF9186
:10122000CF910895CF93DF938091FD04D3DFEC013C
:101230008091FC04CFDFCC0FDD1F8C2BE091FB04F1
:10124000EF7094E0E99FF0011124E80FF11DE55ED5
:10125000FD4F80818093FB0480738031B9F0803230
:1012600089F54091990450919A0460919B04709182
:101270009C048091110290911202A0911302B091EE
:101280001402841B950BA60BB70B14C04091990454
:1012900050919A0460919B0470919C04809111027A
:1012A00090911202A0911302B0911402840F951F25
:1012B000A61FB71F8093110290931202A0931302EE
:1012C000B093140281E08093940480911102909174
:1012D0001202A0911302B09114028037904EAA49D5
:1012E000B10528F080E790EEAAE9B0E011C0809146
:1012F000110290911202A0911302B0911402813256
:101300009D41AA49B10560F480E29DE1AAE9B0E0FF
:101310008093110290931202A0931302B0931402CF
:10132000DF91CF9108951F93CF93DF93282F30E063
:10133000F901EE51FE4F8491F901E456FE4FD4912C
:10134000F901EA5AFE4FC491CC23C1F0162F811146
:10135000EBDEEC2FF0E0EE0FFF1FE45CFE4FA591FB
:10136000B4918FB7F894111105C09C91ED2FE095C1
:10137000E92302C0EC91ED2BEC938FBFDF91CF916D
:101380001F910895CF93DF9390E0FC01E456FE4F48
:101390002491FC01EA5AFE4F8491882361F190E088
:1013A000880F991FFC01EE5DFE4FC591D491FC01A1
:1013B000E45CFE4FA591B491611109C09FB7F89408
:1013C0008881209582238883EC912E230BC0623084
:1013D00061F49FB7F8943881822F809583238883A6
:1013E000EC912E2B2C939FBF06C08FB7F894E88109
:1013F0002E2B28838FBFDF91CF910895CF93DF935A
:10140000EC01888581110EC081E088878A85882358
:1014100011F062E001C060E08985B4DF8FE090E008
:101420000197F1F78985D6DE2B8530E041E0821700
:10143000930709F440E0842FDF91CF910895CF9373
:10144000FC01C48121E02093EF02C093CE021092F0
:101450006803109267038385682B8AE094E082D941
:1014600080916703813208F046C090916603911124
:10147000FCCF92E09093660391E0909365039FEF19
:10148000909337031092590380935803AFECB2E066
:1014900028E333E0F9019E2F921B981718F49D91D1
:1014A0009193F9CF10925A0380915A03CC0FC82B15
:1014B000C0935A0380916403813061F410926403F5
:1014C00080915A038093BB008091BC0083FDF8CFCC
:1014D00085EC01C085EE8093BC008091660382306C
:1014E000E1F3809137038F3F31F0809137038032F1
:1014F00011F08091370310926803109267031092E5
:10150000EF02CF9108950F931F93CF938C01C62FB5
:1015100096DF6C2F6460C80192DF6C2F6B7FC8016F
:101520008EDF83EC90E00197F1F7CF911F910F913F
:101530000895FF920F931F93CF93DF931F92CDB720
:10154000DEB78C01F62E962F907F692F642BC80191
:101550004983D9DF80E1F89EB00111244981642BD1
:10156000C8010F90DF91CF911F910F91FF90CBCFCA
:1015700041E0DFDF81E090E008951F93CF93DF9398
:10158000EC01E881F9810190F081E02D1995182F87
:10159000C8DA2A81213069F028F02230B9F02330EE
:1015A000E1F026C0111124C07C836B8381E08A8323
:1015B00020C0112311F01A821BC02B813C81621BB9
:1015C000730B6F307105A8F082E005C0112389F01C
:1015D0007C836B8383E08A830BC01123A9F32B8167
:1015E0003C81621B730B6F30710510F01A8201C0D1
:1015F00010E0812FDF91CF911F9108951F93CF931A
:10160000DF93182FC8E0D0E0612F617086E08BDE99
:1016100061E084E088DE60E084E085DE1695219755
:1016200099F7DF91CF911F910895AF92BF92CF921A
:10163000DF92EF92FF920F931F93CF93DF9320914E
:10164000F9043091FA048901330F220B330B000F98
:10165000111F221F331FC090F104D090F204E090BC
:10166000F304F090F404C00ED11EE21EF31E6C0DC4
:101670007D1D8E1D9F1D2FEF3FEFA9010E942A1691
:10168000E0E4AE2EF9E5BF2EA3E7CA2EB7E0DB2ECD
:10169000E12CF12C00E010E00E945316C22ED32E54
:1016A000E42EF52EC4E0D0E08C2DA8DFCD2CDE2C6E
:1016B000EF2CFF242197C1F780E0A0DF61E085E0F7
:1016C00032DE60E085E02FDE1092940410929E04DA
:1016D00010929D04DF91CF911F910F91FF90EF9099
:1016E000DF90CF90BF90AF900895CF93DF93CDB7A9
:1016F000DEB728970FB6F894DEBF0FBECDBF28E047
:10170000E7E7F2E0DE01119601900D922A95E1F7EC
:1017100020917305261710F46FEF620FFE013196CA
:10172000E60FF11DE60FF11D9081682F690F6068CB
:1017300040E08AE695E028960FB6F894DEBF0FBE2B
:10174000CDBFDF91CF91F5CECF93DF93AB01BC013D
:101750002AE08DE693E006D9EC016CEB72E08DE6B1
:1017600093E0EBD88C0F9D1FDF91CF910895FC0182
:1017700044815581608171818AE695E00C94E30192
:101780008F929F92AF92BF92CF92DF92EF92FF9291
:101790004B015C0120E432E44FE050E00E9400166F
:1017A0002093BF04C501B40120EA36E841E050E0CF
:1017B0000E9400168AE0C82ED12CE12CF12CCA011F
:1017C000B901A70196010E9400166093BE04C501ED
:1017D000B40120E137E240E050E00E940016CA0167
:1017E000B901A70196010E9400166093BD04C501CE
:1017F000B40128EE33E040E050E00E940016CA0138
:10180000B901A70196010E9400166093BC04C501AE
:10181000B40124E630E040E050E00E940016CA0126
:10182000B901A70196010E9400166093BB04C5018F
:10183000B401A70196010E940016B62ECA01B90193
:10184000A70196010E9400166093BA04B092B904F1
:1018500062E080E04ADF8AEE94E089DF8091BF0495
:1018600062E08A3010F085E001C086E03EDF409102
:10187000BF0450E060E070E02AE08AE695E072D8AC
:101880008EED94E074DF4091BE0450E060E070E0C3
:101890002AE08AE695E066D84091BD0450E060E019
:1018A00070E02AE08AE695E05DD84091BC0450E003
:1018B00060E070E02AE08AE695E054D88EED94E08E
:1018C00056DF4091BB0450E060E070E02AE08AE619
:1018D00095E048D84091BA0450E060E070E02AE01A
:1018E0008AE695E03FD84091B90450E060E070E0AE
:1018F0002AE08AE695E036D884EE94E038DF11D904
:101900006093950470939604809397049093980441
:10191000FF90EF90DF90CF90BF90AF909F908F900F
:10192000089540E061E08AE695E003DE8BE39FE105
:101930000197F1F70895CF93DF93BC018DE693E013
:101940000E947904EC016CEB72E08DE693E00E945A
:101950009D048C0F9D1FDF91CF91089524E0813A63
:10196000920789F0FC01608171816115710539F080
:101970004481558181EA94E00E94410404C081EAD7
:1019800094E00E94090481EA94E008958AEE94E0CC
:101990000E94600484EE94E00E9460048EED94E066
:1019A0000E94600488ED94E00E94600482ED94E05F
:1019B0000E9460048CEC94E00E94600486EC94E049
:1019C0000E94600480EC94E00E94600483EB94E049
:1019D0000E9460048DEA94E00E94600487EA94E02B
:1019E0000E94600481EA94E00C946004CF93DF933A
:1019F000CDB7DEB761970FB6F894DEBF0FBECDBF8F
:101A0000789484B5826084BD84B5816084BD85B5D9
:101A1000826085BD85B5816085BD80916E008160E5
:101A200080936E001092810080918100826080938B
:101A3000810080918100816080938100809180008D
:101A40008160809380008091B10084608093B100B8
:101A50008091B00081608093B0008091910082609D
:101A6000809391008091910081608093910080919A
:101A700090008160809390008091A10082608093AB
:101A8000A1008091A10081608093A1008091A000BD
:101A900081608093A0008091210182608093210168
:101AA00080912101816080932101809120018160DA
:101AB0008093200180917A00846080937A008091E5
:101AC0007A00826080937A0080917A0081608093AE
:101AD0007A0080917A00806880937A001092C10029
:101AE00011E01093000281E090E090939E048093B7
:101AF0009D04E0917D03F0917E0382E08083E0917C
:101B00007903F0917A031082E0917B03F0917C03DA
:101B10008FEC808310928503E0918103F091820322
:101B200086E08083E0917F03F09180038081806173
:101B30008083E0917F03F0918003808188608083BF
:101B4000E0917F03F0918003808180688083E09141
:101B50007F03F091800380818F7D808388EC92E009
:101B6000EADE10926A0310926903109268031092E1
:101B7000670310926603109365031092640361E09B
:101B800084E1D1DB61E085E1CEDB8091B9008E7F1D
:101B90008093B9008091B9008D7F8093B90088E46B
:101BA0008093B80085E48093BC0010926F0580910B
:101BB0007305823018F098E090936F05909174054A
:101BC000992339F0813029F480916F0584608093E6
:101BD0006F0562E370E080E090E00E94590560913B
:101BE00075058AE695E02BDC68EE73E080E090E016
:101BF0000E94590560E38AE695E085DC0BE416E473
:101C0000C8010197F1F760E38AE695E07CDCC80142
:101C10000197F1F760E38AE695E075DC83E592E0F1
:101C20000197F1F760E28AE695E06DDC60916F055F
:101C3000606240E08AE695E07CDC84E08093700599
:101C400040E06CE08AE695E074DC6BDE82E0809335
:101C5000710540E066E08AE695E06BDC40E062E01A
:101C60008AE695E066DC8BE39FE10197F1F788E077
:101C70008093750560E08AE695E0E1DB52DE61E085
:101C800085E380DB2091180530E0F901EE51FE4F2D
:101C90008491F901E456FE4FE491E0931B05F901AC
:101CA000EA5AFE4F14911123A9F081113DDAE12F78
:101CB000F0E0EE0FFF1FE45CFE4F8591949190934E
:101CC0001A058093190561E0809118055BDB86E1B8
:101CD00095E006DA80916C0381113EC01FB7F8943D
:101CE00080916B03811123C0EBE8F1E08491E1ED79
:101CF000F1E09491E82FF0E0EE0FFF1FEE5DFE4F54
:101D0000A591B491EC91E92319F461E085E30BDB33
:101D100061E085E337DB8CB580618CBD8CB5806478
:101D20008CBD61E084E32EDB61E083E32BDB8091FB
:101D30006B038F5F80936B031FBF8CB58F7D8CBD52
:101D40008CB5837F8CBD8CB58C7F8CBD8DB581604F
:101D50008DBD81E080936C0386E195E0CFD985E06D
:101D6000DCD980E0DAD9182F86E195E0B9D990E77F
:101D7000012F092786E195E0C1D986E0CED986E119
:101D800095E0AED986E195E0B9D981E0C6D9802F3A
:101D9000C4D986E195E0A4D986E195E0AFD985E084
:101DA000BCD980E0BAD9182F86E195E099D9E091A5
:101DB0001605F0911705EA5EFA4F80AD882389F089
:101DC00086E195E09BD98FE9A8D980E0A6D980E08B
:101DD000A4D980E0A2D98F71F82E86E195E080D950
:101DE00001C0F12CE0911605F0911705EA5EFA4F5B
:101DF00080ADF81204C01027107709F041C491DDBE
:101E000022E139E030930C0220930B0280916900AB
:101E10008F73806480936900EB9A30930A02209359
:101E20000902809169008F7C806180936900EA9A41
:101E300019821A821B821C82C0901005D090110555
:101E4000E0901205F0901305C114D104E104F104EF
:101E500019F486E090E069C080910B0590910C0523
:101E6000A0910D05B0910E05892B8A2B8B2B19F4AF
:101E700085E090E05AC0B0900F05009114051091D4
:101E80001505F801EC5BFF4F80819181A281B38140
:101E9000C816D906EA06FB0608F43FC0349640810E
:101EA0005181628173814C155D056E057F05A8F136
:101EB0008FEF8B0D8034A0F5D701C6010197A109E2
:101EC000B1098B0D911DA11DB11D481759076A0756
:101ED0007B0748F1C80112D983E01FD9D801D696F3
:101EE0008D919C91D797019711F48E2D16D98D2D38
:101EF00014D98C2D12D9FE0131966F017F0180E03B
:101F00000CD9D7018D937D018A2F8C198B15B8F3CD
:101F1000C801E6D880E090E008C081E090E005C00C
:101F200082E090E002C083E090E090930A05809305
:101F3000090567E672E08DE693E00E947904C980A6
:101F4000DA80EB80FC80C701B601FEDBD701C60159
:101F500080529D41AA49B1098135934CA105B10533
:101F600068F068E272E08DE693E00E947904C701B0
:101F7000B601EADBC12CD12C760108C081E090E0EB
:101F800090939E0480939D0480939404C0921102C8
:101F9000D0921202E0921302F092140264E872E00E
:101FA0008DE693E00E947904609111027091120213
:101FB0008091130290911402C7DB809111029091DD
:101FC0001202A0911302B0911402892B8A2B8B2B41
:101FD000D1F08091110290911202A0911302B09160
:101FE000140280329D41AA49B10568F08091110226
:101FF00090911202A0911302B09114028137904E79
:10200000AA49B10560F080E29DE1AAE9B0E08093C1
:10201000110290931202A0931302B09314026091E4
:102020001102709112028091130290911402FDDA54
:10203000609111027091120280911302909114022A
:102040009FDB6091110270911202809113029091B6
:102050001402EBDA64E670E080E090E00E9459053B
:1020600081E090E090939E0480939D0460E080E086
:102070003CDB61E080E039DB65EB72E08AE695E00D
:102080000E949D0461E081E130DB8DEA94E06FDB2A
:1020900063E080E02ADB81EA94E069DB63E089E0C9
:1020A00024DB6DE772E08AE695E00E94790463E044
:1020B00082E11BDB83EB94E05ADB1E018DE0280EEE
:1020C000311C412C512C320143945AE0852E912C25
:1020D000A12CB12C80919D0490919E04892B09F034
:1020E00006C1C0909504D0909604E0909704F090BB
:1020F00098040E949105A0EACA0EAFE0DA1EE11C26
:10210000F11CC616D706E806F90608F0F0C0809163
:10211000110290911202A0911302B09114028D87C6
:102120009E87AF87B88B6FEF72E08DE693E00E94D9
:1021300079044D855E856F8578892AE08DE693E088
:102140000E94B2046DEF72E08DE693E00E94790484
:102150002AE040E050E0BA018DE693E00E94B2042C
:102160008BEF92E0E8DBC0901005D0901105E09075
:102170001205F0901305C114D104E104F10419F41F
:1021800086E090E079C080910B0590910C05A091BC
:102190000D05B0910E05892B8A2B8B2B19F485E048
:1021A00090E06AC020910F05298B009114051091D1
:1021B0001505F801EC5BFF4F80819181A281B3810D
:1021C000C816D906EA06FB0608F44EC034964081CC
:1021D0005181628173814C155D056E057F0508F4A0
:1021E00043C0822F8150803408F041C0D701C6011E
:1021F0000197A109B109820F911DA11DB11D4817B9
:1022000059076A077B07B0F1C8010E947E0886E083
:102210000E948D08C8010E947008C8010E947E08B3
:1022200082E00E948D08D801D6968D919C91D79717
:10223000019719F48E2D0E948D088D2D0E948D0816
:102240008C2D0E948D087101F70181917F010E9400
:102250008D088E2D821929898217B0F3C8010E943A
:10226000700880E090E008C081E090E005C082E066
:1022700090E002C083E090E090930A058093090506
:102280006BED72E08DE693E00E947904C090090541
:10229000D0900A050D2C000CEE08FF08F7FE14C0C4
:1022A000E0916D03F0916E030190F081E02D6DE2FD
:1022B0008DE693E0199544275527BA014C195D091D
:1022C0006E097F092AE003C02AE0B701A6018DE666
:1022D00093E00E94B2046CEB72E08DE693E00E9402
:1022E0009D0481E090E090939E0480939D048BE395
:1022F0000E94EA088C0180914C0490914D04801753
:102300009107E1F060E089E0F0D90115110551F085
:102310000130110599F463EC72E08AE695E00E94C1
:102320009D040CC06FEB72E08AE695E00E949D046C
:102330006DE770E080E090E00E94590510934D0435
:1023400000934C0411E082E294E058D8882309F409
:1023500052C08091110290911202A0911302B0918B
:102360001402C0909904D0909A04E0909B04F090DD
:102370009C04C80ED91EEA1EFB1E91E7C91690EEFA
:10238000D9069AE9E906F10480F4A0E2CA16ADE1A3
:10239000DA06AAE9EA06F10478F430E2C32E3DE158
:1023A000D32E3AE9E32EF12C07C020E7C22E20EE0F
:1023B000D22E2AE9E22EF12C1093940410929E045E
:1023C00010929D040E949105609395047093960469
:1023D0008093970490939804C0921102D0921202B5
:1023E000E0921302F092140262E370E080E090E069
:1023F0000E945905A8CF11E086E194E00E94FE09F1
:10240000882309F452C0C0901102D0901202E090CB
:102410001302F09014028091990490919A04A09173
:102420009B04B0919C04C81AD90AEA0AFB0AB1E7D6
:10243000CB16B0EEDB06BAE9EB06F10480F4E0E27D
:10244000CE16EDE1DE06EAE9EE06F10478F490E25C
:10245000C92E9DE1D92E9AE9E92EF12C07C080E71B
:10246000C82E80EED82E8AE9E82EF12C1093940421
:1024700010929E0410929D040E9491056093950411
:10248000709396048093970490939804C0921102DD
:10249000D0921202E0921302F092140262E370E012
:1024A00080E090E00E945905A7CF8AE394E065D8C8
:1024B000882309F46BC08091990490919A04A091AB
:1024C0009B04B0919C0482339105A105B105D1F123
:1024D000CCF481309105A105B10549F10A97A10518
:1024E000B10509F04DC082E390E0A0E0B0E0809338
:1024F000990490939A04A0939B04B0939C048CEC51
:1025000094E03DC084369105A105B10551F1843FA9
:102510009140A105B105A1F54092990450929A0409
:1025200060929B0470929C0480EC94E028C080929E
:10253000990490929A04A0929B04B0929C0486EC19
:1025400094E01DC084E690E0A0E0B0E080939904A0
:1025500090939A04A0939B04B0939C0482ED94E022
:102560000EC084EF91E0A0E0B0E0809399049093D6
:102570009A04A0939B04B0939C0488ED94E0EED958
:1025800063E080E0B2D881EA94E0F1D88EE294E092
:102590000E94BD0A882309F457C06EEB72E0CE0199
:1025A00007960E9465046EEB72E0CE0101960E94D0
:1025B00065049091F00481E089278093F0048130D4
:1025C00039F060E082E20E94930962E173E006C0A4
:1025D00061E082E20E9493096EE073E0CE0107960B
:1025E0000E941B046AE073E0CE0101960E941B0466
:1025F0008B859C85EF80F8840D811E81E114F104A8
:10260000A9F0009799F0080F191FB801CE010196A3
:102610000E94E203882351F029813A818D819E81B5
:10262000B701820F931F33D61E830D8363E089E0C9
:102630005CD8CE0101969BD8CE0101960E94600421
:10264000CE0107960E946004809194048823A9F02B
:102650006091110270911202809113029091140204
:102660008FD86091110270911202809113029091A3
:1026700014020E94150B109294040E94CD022ACDE0
:1026800087EA92E058D960E080E02FD86AE972E0EA
:102690008AE695E00E94790461E080E026D869E846
:1026A00072E08AE695E00E94790468E873E180E0D0
:1026B00090E00E945905A3CB8F929F92AF92BF9258
:1026C000FF920F931F93CF93DF93EDE6F3E0138216
:1026D000128288EE93E0A0E0B0E084839583A68325
:1026E000B78323E832E03183208325EC30E035875F
:1026F000248724EC30E03787268720EC30E0318BCC
:10270000208B21EC30E0338B228B22EC30E0358BB8
:10271000248B26EC30E0378B268B118E128E138E95
:10272000148EEAE0F4E01382128284839583A683F8
:10273000B78383E992E091838083EAE6F5E0138230
:10274000128289EA92E09183808387E2848384E124
:10275000808784E08187128698E0F92EF386E6E18F
:10276000F5E001E010E01183008395E392834FEFE1
:1027700057E060E070E04683578360877187882464
:102780008A942FE1922EA12CB12C82869386A48666
:10279000B5864FEF5FE360E070E046875787608B58
:1027A000718B428B538B648B758B4FEF5FE760E0CF
:1027B00070E0468B578B608F718F428F538F648F81
:1027C000758F4FEF5FEF61E070E0468F578F60A32A
:1027D00071A34FEF5FEF63E070E042A353A364A3E4
:1027E00075A317A216A211A610A613A612A615A6C7
:1027F00014A617A616A611AA10AA13AB02AB15AB06
:1028000004AB10AE11AE12AE83AF14AE95E0909350
:10281000530597E090935405F09255051092560594
:1028200010925705109258051092590540E450E057
:1028300060E070E040935A0550935B0560935C053F
:1028400070935D0580925E0590925F05A092600591
:10285000B092610517AA16AA3FE7832E912CA12CEE
:10286000B12C8092620590926305A0926405B092AB
:102870006505ABE0B5E0C2E08C2E912CA12CB12C0B
:102880008D929D92AD92BC92139714968C9314974F
:102890001A96FC93EE93199710920A051092090567
:1028A00015964D935D936D937C931897AEEFB4E0BE
:1028B00044E150E060E070E04D935D936D937C9354
:1028C000139714968C9314971A96FC93EE9319977A
:1028D00048E950E060E070E040936605509367057A
:1028E000609368057093690548E450E060E070E02B
:1028F00015964D935D936D937C931897CBEFD4E031
:1029000082E1898383E18A8360E082E10E94C209D7
:1029100060E08A810E94C20961E089810E94930976
:1029200061E08A810E9493091882C1EFD4E085EDAD
:102930009DEF9987888761E085E00E94C20961E088
:1029400084E00E94C20961E086E00E94C20961E061
:1029500087E00E94C20961E087E00E94930960E07D
:1029600087E00E94930961E084E00E94930960E09F
:1029700084E00E94930961E085E00E94930960E091
:1029800085E00E94930980E393E1A7EBB0E08883A0
:102990009983AA83BB836EEB72E081EA94E00E9484
:1029A00065046EEB72E087EA94E00E9465046EEBCA
:1029B00072E08DEA94E00E9465046EEB72E083EBB6
:1029C00094E00E9465046EEB72E080EC94E00E945B
:1029D00065046EEB72E086EC94E00E9465046EEB99
:1029E00072E08CEC94E00E9465046EEB72E082ED84
:1029F00094E00E9465046EEB72E088ED94E00E9422
:102A000065046EEB72E08EED94E00E9465046EEB5F
:102A100072E084EE94E00E9465046EEB72E08AEE50
:102A200094E00E946504C4E9D4E082E390E0A0E071
:102A3000B0E08D839E83AF83B88785E090E09C876C
:102A40008B8718821A87098766E573E080EC94E02B
:102A50000E941B046FE473E086EC94E00E941B0468
:102A600068E473E08CEC94E00E941B0461E473E082
:102A700082ED94E00E941B046AE373E088ED94E029
:102A80000E941B0446E050E067EC72E081EA94E0AB
:102A90000E94410466E373E08DEA94E00E941B0407
:102AA00063E373E083EB94E00E941B0461E373E053
:102AB0008EED94E00E941B046BE273E084EE94E0E0
:102AC0000E941B0466E173E08AEE94E00E941B04FE
:102AD0001092F0040E94910569837A838B839C8312
:102AE000C6E4D4E089ED9EECAFE9B0E48A879B8729
:102AF000AC87BD8788E0E7E3F2E0A4E5B4E00190AD
:102B00000D928A95E1F788E0EFE3F2E0ACE5B4E0FE
:102B100001900D928A95E1F788E0E7E4F2E0A4E6FF
:102B2000B4E001900D928A95E1F788E0EFE4F2E0DD
:102B3000ACE6B4E001900D928A95E1F788E0E7E514
:102B4000F2E0A4E7B4E001900D928A95E1F788E005
:102B5000EFE5F2E0ACE7B4E001900D928A95E1F781
:102B600088E0E7E6F2E0A4E8B4E001900D928A95EF
:102B7000E1F788E0EFE6F2E0ACE8B4E001900D9216
:102B80008A95E1F762E08BE30E94C2091F821E82F0
:102B9000EAE3F4E01282158223EA32E031832083F3
:102BA0001086F18681E082878387EEE2F4E012826C
:102BB00015823183208310869CE3918782878387E7
:102BC000E2E2F4E0128215823183208310869EE1D6
:102BD000918782878387E6E1F4E012821582318350
:102BE000208310869FE1918782878387DF91CF9131
:102BF0001F910F91FF90BF90AF909F908F9008957D
:102C0000A1E21A2EAA1BBB1BFD010DC0AA1FBB1FF0
:102C1000EE1FFF1FA217B307E407F50720F0A21B62
:102C2000B30BE40BF50B661F771F881F991F1A94CF
:102C300069F760957095809590959B01AC01BD01F9
:102C4000CF010895EE0FFF1F881F8BBF0790F691ED
:102C5000E02D1994E894DF93CF93FC01DB012ED390
:102C60007F936F93E9019A01AC01BF93AF933F93B8
:102C70002F93DF0123D326F46C1B7D0B820B930B68
:102C80009E01EB01FC01DDD0AF91BF912F913F91EF
:102C9000D8D0BE01CF01F9012F913F91CF91DF91A3
:102CA0000895689401C0E894F92FF12B0AF027C029
:102CB000A0E0B0E0EDE5F6E193C0092E05941AF42A
:102CC00079D0112392F4F0E80F26FFEFE094F0940E
:102CD00000951095B094C094D094A194BF0ACF0AE7
:102CE000DF0AEF0AFF0A0F0B1F0B13D007FC62D09D
:102CF000CDB7DEB7ECE090C0689401C0E8948F9245
:102D00009F92CF93DF9305D0DF91CF919F908F90CB
:102D1000089588249924F401E401B0E49F93AA273C
:102D20009A158B049C04ED05FE05CF05D007A1077D
:102D300098F4AD2FDC2FCF2FFE2FE92D982C892E64
:102D4000982F872F762F652F542F432F322F22272E
:102D5000B85031F7BF9127C01B2EBF91BB27220F60
:102D6000331F441F551F661F771F881F991F881C1C
:102D7000991CEE1FFF1FCC1FDD1FAA1FBB1F8A144B
:102D80009B04EC05FD05CE05DF05A007B10748F063
:102D90008A189B08EC09FD09CE09DF09A00BB10BCD
:102DA00021601A94E1F62EF49401AF01BE01CD0129
:102DB000000C08956095709580959095309540959C
:102DC000509521953F4F4F4F5F4F6F4F7F4F8F4F24
:102DD0009F4F08952F923F924F925F926F927F92F2
:102DE0008F929F92AF92BF92CF92DF92EF92FF921B
:102DF0000F931F93CF93DF93CDB7DEB7CA1BDB0BC7
:102E00000FB6F894DEBF0FBECDBF19942A8839885B
:102E100048885F846E847D848C849B84AA84B98472
:102E2000C884DF80EE80FD800C811B81AA81B9817E
:102E3000CE0FD11D0FB6F894DEBF0FBECDBFED0192
:102E400008953CD2460F571FC81FD91F08F431966A
:102E50000895CF93DF938230910510F482E090E0E3
:102E6000E0917805F091790520E030E0C0E0D0E015
:102E7000309711F14081518148175907C0F0481728
:102E8000590761F482819381209719F09B838A838B
:102E90002BC0909379058093780526C021153105C4
:102EA00019F04217530718F49A01BE01DF01EF0130
:102EB0000280F381E02DDCCF2115310509F1281BBB
:102EC000390B2430310590F412968D919C91139713
:102ED0006115710521F0FB019383828304C09093F7
:102EE000790580937805FD01329644C0FD01E20F1B
:102EF000F31F81939193225031092D933C933AC053
:102F00002091760530917705232B41F4209117020B
:102F100030911802309377052093760520911502A1
:102F2000309116022115310541F42DB73EB740917D
:102F3000190250911A02241B350BE0917605F0918D
:102F40007705E217F307A0F42E1B3F0B281739076C
:102F500078F0AC014E5F5F4F2417350748F04E0FF5
:102F60005F1F50937705409376058193919302C03C
:102F7000E0E0F0E0CF01DF91CF9108950F931F9330
:102F8000CF93DF93009709F48CC0FC013297138232
:102F9000128200917805109179050115110581F4CF
:102FA00020813181820F931F209176053091770522
:102FB0002817390779F5F0937705E093760571C006
:102FC000D80140E050E0AE17BF0750F412962D91A3
:102FD0003C911397AD012115310509F1D901F3CFCA
:102FE0009D01DA013383228360817181860F971FEF
:102FF0008217930769F4EC0128813981260F371F66
:103000002E5F3F4F318320838A819B81938382830C
:10301000452B29F4F0937905E093780542C0139687
:10302000FC93EE931297ED01499159919E01240F63
:10303000351FE217F30771F480819181840F951F8A
:10304000029611969C938E938281938113969C9302
:103050008E931297E0E0F0E0D80112968D919C914A
:103060001397009719F0F8018C01F6CF8D919C9180
:1030700098012E5F3F4F820F931F2091760530916C
:1030800077052817390769F4309729F410927905E4
:103090001092780502C01382128210937705009374
:1030A0007605DF91CF911F910F9108956F927F92D6
:1030B0008F929F92AF92BF92CF92DF92EF92FF9248
:1030C0000F931F93CF93DF93EC01009781F4CB0113
:1030D000DF91CF911F910F91FF90EF90DF90CF90F4
:1030E000BF90AF909F908F907F906F90B2CEFC0179
:1030F000E60FF71F9C0122503109E217F30708F48D
:10310000A8C0D9010D911C91119706171707A8F0B7
:103110000530110508F49BC0C8010497861797076E
:1031200008F495C002501109061B170B0193119367
:103130006D937C93CF0122DF8AC05B01A01AB10A94
:103140004C01800E911EA0917805B091790540E068
:1031500050E0E12CF12C109709F44AC0A815B905EC
:10316000D1F56D907C901197630182E0C80ED11C5F
:10317000CA14DB0480F1A3014A195B096A0182E0E9
:10318000C80ED11C1296BC9012971396AC91B5E064
:10319000CB16D10440F0B282A38351834083D9017E
:1031A0006D937C930AC00E5F1F4FC301800F911F68
:1031B000F90191838083EB2DFA2FE114F10431F0B2
:1031C000D7011396FC93EE93129741C0F0937905C3
:1031D000E09378053CC08D919C9111974817590751
:1031E00008F4AC017D0112960D90BC91A02DB3CFD7
:1031F000809176059091770588159905E1F4461739
:103200005707C8F48091150290911602009741F477
:103210008DB79EB74091190250911A02841B950BED
:10322000E817F907B0F4F0937705E0937605F90114
:10323000718360830CC0CB010CDE7C01009749F0E8
:10324000A801BE011BD0CE0199DEC70104C0CE018A
:1032500002C080E090E0DF91CF911F910F91FF902D
:10326000EF90DF90CF90BF90AF909F908F907F9026
:103270006F90089581E090E0F8942FC0FB01DC018D
:1032800002C001900D9241505040D8F70895FB01C3
:10329000DC0101900D920020E1F70895FB01DC01B3
:1032A00005900D920020E1F70895FC0105900020A3
:1032B000E9F7809590958E0F9F1F0895A29FB0010A
:1032C000B39FC001A39F700D811D1124911DB29F5A
:1032D000700D811D1124911D089511E0C0EBD1E006
:1032E00000E005C0802FFE01ADDC2196011DC13B31
:0C32F000D10780E00807B1F7F894FFCF89
:1032FC00012A032A032A032A032A032A032A032A5C
:10330C0003201D9A0000007A0580000002040003CF
:10331C000001100302000003020100060004000675
:10332C00050020060504000000000000001818002D
:10333C0000000000031B1B000000001818181800E8
:10334C000000031B1B1B1B00001818181818180072
:10335C00031B1B1B1B1B1B18181818181818181BE1
:10336C001B1B1B1B1B1B1B000040001400540000EC
:10337C000000006602E30130020E022202AC0200E1
:10338C00000000B20383037B036C035E035D030048
:10339C00000000FE0900000000B80AE30100000074
:1033AC0000E003E3014B47354E4949000D0A005B31
:0E33BC002B5D0020202000353020487A2000B4
:00000001FF
