:10000000B0C1000011C70000E4C60000B7C6000080
:100010008AC600005DC6000030C6000003C60000AE
:10002000D6C50000CFC10000CDC10000CBC100008B
:10003000C9C10000C7C10000C5C10000C3C10000A4
:10004000C1C10000BFC10000BDC10000BBC10000B4
:10005000B9C10000B7C10000B5C100006EC5000005
:10006000B1C10000F0C40000C5C40000ABC1000075
:10007000A9C10000A7C10000A5C10000A3C10000E4
:10008000A1C100009FC100009DC100009BC10000F4
:1000900099C1000097C1000095C10000F0C60000A2
:1000A00091C100008FC100008DC100008BC1000014
:1000B00089C1000087C1000085C1000083C1000024
:1000C00081C100007FC100007DC100007BC1000034
:1000D00079C1000077C1000075C1000073C1000044
:1000E00071C10000AF08B208A108A508AB08E90873
:1000F000B608BA08C008C408C808CE08D208D6088E
:10010000E908DC08E008E4080000200023002600DD
:1001100029002C002F00320000010000030106011D
:10012000090100002100240027002A002D003000D2
:10013000330001010000040107010A010000220050
:10014000250028002B002E003100340002010000A1
:10015000050108010B010505050507050808080844
:10016000020202020A0A080804040404010101014F
:10017000010101010303030303030303040707074A
:100180000C0C0C0C0C0C0C0C0202020206060606EF
:10019000060606060B0B0B0B0B0B0B0B01021020BC
:1001A00020080810204010204080020102010804AD
:1001B0000201010204081020408080402010080441
:1001C000020180040201804020100804020108049A
:1001D00002010102040810204080010204081020DE
:1001E000408000000A0B02090C0D0E0807030401F1
:1001F00000000000000000000000000000000000FF
:1002000000000000000000000000000000001211CB
:1002100010000000000000000000000000000000CE
:100220000000000000000000726561644D454D282B
:10023000293A2076616C756520726561642077616A
:10024000732065697468657220746F6F20686967D0
:1002500068206F7220746F6F206C6F772E2020568D
:10026000616C75653A200056616C75652072656138
:100270006420696E746F2076666F3A2000463A20DB
:100280006F66660072783A200043616E6E6F74206C
:10029000636F6E74696E7565210044616D6E204EEA
:1002A0006F204652414D0044616D6E2E204E6F20EE
:1002B0004672616D2E202043616E6E6F7420436F15
:1002C0006E74696E7565210053657269616C206991
:1002D0006E697469616C697A6564005772697465E6
:1002E00020746F2056464F41727261792072657397
:1002F000756C7420636F64653A200029002C0077C8
:10030000726974654D454D282000463A20006F6E95
:1003100020006F6666002020202020202020202042
:100320002020202020202020202000202020487A6B
:10033000002E0043570033304D0035303020487ACE
:100340000031303020487A00353020487A200031A2
:100350003020487A2000303120487A2000005C1399
:10036000C60C11241FBECFEFD1E2DEBFCDBF00E02F
:100370000CBF12E0A0E0B2E0ECEFF2E300E00BBF54
:1003800002C007900D92AE3CB107D9F725E0AEEC64
:10039000B2E001C01D92AA37B207E1F711E0C0EB4D
:1003A000D1E000E006C021970109802FFE010E94E4
:1003B0002216CF3AD10780E00807A9F70E94F60C71
:1003C0000C946D191DCECF92DF92EF92FF920F9396
:1003D0001F93CF93DF936C017A018B01C0E0D0E0D3
:1003E000CE15DF0589F0D8016D918D01D601ED9113
:1003F000FC910190F081E02DC6011995892B11F433
:100400007E0102C02196ECCFC701DF91CF911F91F1
:100410000F91FF90EF90DF90CF900895FC01918DA8
:10042000828D981761F0828DDF01A80FB11D5D9656
:100430008C91928D9F5F9F73928F90E008958FEFC4
:100440009FEF0895FC01918D828D981731F0828D78
:10045000E80FF11D858D90E008958FEF9FEF0895CF
:10046000FC01918D228D892F90E0805C9F4F821B33
:1004700091098F73992708958DE693E0F1DF21E0CC
:10048000892B09F420E0822F0895FC01848DDF017F
:10049000A80FB11DA35ABF4F2C91848D90E00196F7
:1004A0008F739927848FA689B7892C93A089B189E6
:1004B0008C9180648C93938D848D981306C00288F0
:1004C000F389E02D80818F7D80830895EF92FF92E4
:1004D0000F931F93CF93DF93EC0181E0888F9B8D67
:1004E0008C8D981305C0E889F989808185FD23C02A
:1004F000F62E0B8D10E00F5F1F4F0F731127E02EAC
:100500008C8DE8120BC00FB607FCFACFE889F98989
:10051000808185FFF5CFCE01B8DFF2CF8B8DFE0154
:10052000E80FF11DE35AFF4FF0820B8FEA89FB8938
:100530008081806207C0EE89FF896083E889F9893C
:1005400080818064808381E090E0DF91CF911F9172
:100550000F91FF90EF900895CF93DF93EC01888D7A
:100560008823C1F0EA89FB89808185FD05C0A889BF
:10057000B9898C9186FD0EC00FB607FCF5CF80813E
:1005800085FFF2CFA889B9898C9185FFEDCFCE0187
:100590007CDFE8CFDF91CF91089580E090E0892B58
:1005A00019F06ADF811125C080E090E0892B41F0CD
:1005B00080E090E0892B21F00E94000081111CC096
:1005C00080E090E0892B41F080E090E0892B21F0E1
:1005D0000E940000811113C080E090E0892BA1F0FF
:1005E00080E090E0892B81F00E94000081110AC018
:1005F00008950E940000D8CF0E940000E1CF0E9421
:100600000000EACF0C94000008953FB7F894809161
:10061000600390916103A0916203B091630326B5DA
:10062000A89B05C02F3F19F00196A11DB11D3FBF2A
:10063000BA2FA92F982F8827820F911DA11DB11DB8
:10064000BC01CD0142E0660F771F881F991F4A95B4
:10065000D1F70895089585ED8093BC008091BC008A
:1006600084FDFCCF10926603089540911203262F5B
:1006700030E0240F311D21323105DCF42091660376
:100680002430C9F4FC0180E090E0861758F43091E2
:1006900012032191DC01A051BD4FA30FB11D2C937A
:1006A0000196F3CF80911203680F6093120380E0EC
:1006B000089581E0089582E00895089581E090E032
:1006C00030916A0320916903321710F480E090E0C2
:1006D000919581959109089580916A03909169039C
:1006E000891730F48F5F80936A0380E090E008956B
:1006F0008FEF9FEF08958091690390E020916A0346
:10070000821B91090895CF92DF92EF92FF920F938F
:100710001F93CF93DF937C01262F972F8A0180911F
:10072000EF02882391F0C62FD72F6E01C40ED51E7D
:10073000CC15DD0569F06991D701ED91FC9101902F
:10074000F081E02DC7011995F3CF642F822F8DDF43
:10075000C801DF91CF911F910F91FF90EF90DF9033
:10076000CF900895CF93DF931F92CDB7DEB7698303
:100770002091EF022223D1F020916703203240F034
:1007800021E030E0FC013383228380E090E014C05C
:1007900080916803E82FF0E0E153FD4F9981908349
:1007A0008F5F809368038093670304C061E0CE018C
:1007B00001965BDF81E090E00F90DF91CF9108958B
:1007C0000E943A190F931F93CF93DF93EC01888116
:1007D0009981009729F02A813B812617370788F4F1
:1007E0008B016F5F7F4F0E945618009761F09983CD
:1007F00088831B830A832C813D81232B11F4FC0108
:10080000108281E001C080E0DF91CF911F910F91B4
:100810000895CF93DF93EC0188819981009711F0BF
:100820000E94BE17198218821D821C821B821A82A6
:10083000DF91CF910895EF92FF920F931F93CF9383
:10084000DF93EC018B016115710549F0CB010E942A
:1008500055197C01BC01CE01B5DF811103C0CE0169
:10086000D8DF07C0FD82EC82B801888199810E949F
:100870004E19CE01DF91CF911F910F91FF90EF9014
:100880000895EF92FF920F931F93CF93DF93EC01A4
:100890007B018A01BA0196DF811103C0CE01B9DF65
:1008A00007C01D830C83B701888199810E94471975
:1008B000CE01DF91CF911F910F91FF90EF9008959E
:1008C000FC01808191810C94BE17FC011182108281
:1008D00013821282158214826115710549F0FB01A1
:1008E00001900020E9F73197AF01461B570BC9CFA4
:1008F0000895EF92FF920F931F93CF93DF938C0194
:100900007B01C0E0D0E0F701EC0FFD1F649166238E
:1009100061F0D801ED91FC910190F081E02DC801CA
:100920001995892B11F02196EECFCE01DF91CF9151
:100930001F910F91FF90EF9008956115710579F067
:10094000FB0101900020E9F73197AF01461B570BDF
:10095000DC01ED91FC910280F381E02D199480E09F
:1009600090E008954F925F926F927F92EF92FF9284
:100970000F931F93CF93DF93CDB7DEB7A1970FB639
:10098000F894DEBF0FBECDBF7C01FA01CB0119A2E6
:10099000223008F42AE08E010F5D1F4F422E512CA9
:1009A000612C712CBF01A30192010E940016F90174
:1009B000CA01015011096A3014F4605D01C0695C1C
:1009C000D8016C93232B242B252B61F7B801C70189
:1009D000B4DFA1960FB6F894DEBF0FBECDBFDF9196
:1009E000CF911F910F91FF90EF907F906F905F904C
:1009F0004F9008951F920F920FB60F9211240BB6CD
:100A00000F922F933F934F935F936F937F938F93A7
:100A10009F93AF93BF93EF93FF938DE693E035DD04
:100A2000FF91EF91BF91AF919F918F917F916F91C6
:100A30005F914F913F912F910F900BBE0F900FBE82
:100A40000F901F9018951F920F920FB60F921124BE
:100A50000BB60F922F938F939F93EF93FF93E09199
:100A60007D03F0917E038081E0918303F091840304
:100A700082FD12C09081809186038F5F8F732091D9
:100A80008703821751F0E0918603F0E0E359FC4FB1
:100A9000958F8093860301C08081FF91EF919F9194
:100AA0008F912F910F900BBE0F900FBE0F901F9044
:100AB00018958F929F92AF92BF92CF92DF92EF9252
:100AC000FF926B017C01A1DD4B015C01C114D104DB
:100AD000E104F104E9F099DDDC01CB018819990901
:100AE000AA09BB09883E9340A105B10578F321E02E
:100AF000C21AD108E108F10888EE880E83E0981E3A
:100B0000A11CB11CC114D104E104F10421F7DECF12
:100B1000FF90EF90DF90CF90BF90AF909F908F901D
:100B200008952FB7F89460915C0370915D038091F4
:100B30005E0390915F032FBF08951F920F920FB62F
:100B40000F9211242F933F938F939F93AF93BF9353
:100B500080915C0390915D03A0915E03B0915F036F
:100B600030915B0323E0230F2D3720F40196A11D64
:100B7000B11D05C026E8230F0296A11DB11D2093CB
:100B80005B0380935C0390935D03A0935E03B0933B
:100B90005F038091600390916103A0916203B09123
:100BA00063030196A11DB11D8093600390936103BF
:100BB000A0936203B0936303BF91AF919F918F9114
:100BC0003F912F910F900FBE0F901F9018951F927D
:100BD0000F920FB60F9211240BB60F922F933F93E3
:100BE0004F935F936F937F938F939F93AF93BF9335
:100BF000EF93FF93E0910F02F09110021995FF918E
:100C0000EF91BF91AF919F918F917F916F915F9184
:100C10004F913F912F910F900BBE0F900FBE0F90F1
:100C20001F9018951F920F920FB60F9211240BB6BA
:100C30000F922F933F934F935F936F937F938F9375
:100C40009F93AF93BF93EF93FF93E0910D02F091C9
:100C50000E021995FF91EF91BF91AF919F918F91E6
:100C60007F916F915F914F913F912F910F900BBEAC
:100C70000F900FBE0F901F9018951F920F920FB6F6
:100C80000F9211240BB60F922F933F934F935F93C4
:100C90006F937F938F939F93AF93BF93EF93FF9344
:100CA000E0910302F09104021995FF91EF91BF9139
:100CB000AF919F918F917F916F915F914F913F91F4
:100CC0002F910F900BBE0F900FBE0F901F90189595
:100CD0001F920F920FB60F9211240BB60F922F9303
:100CE0003F934F935F936F937F938F939F93AF93B4
:100CF000BF93EF93FF93E0910102F09102021995E7
:100D0000FF91EF91BF91AF919F918F917F916F91E3
:100D10005F914F913F912F910F900BBE0F900FBE9F
:100D20000F901F9018951F920F920FB60F921124DB
:100D30000BB60F922F933F934F935F936F937F93D5
:100D40008F939F93AF93BF93EF93FF93E0910B0229
:100D5000F0910C021995FF91EF91BF91AF919F9186
:100D60008F917F916F915F914F913F912F910F9054
:100D70000BBE0F900FBE0F901F9018951F920F92F1
:100D80000FB60F9211240BB60F922F933F934F93F0
:100D90005F936F937F938F939F93AF93BF93EF93E3
:100DA000FF93E0910902F0910A021995FF91EF91EA
:100DB000BF91AF919F918F917F916F915F914F9173
:100DC0003F912F910F900BBE0F900FBE0F901F9071
:100DD00018951F920F920FB60F9211240BB60F9217
:100DE0002F933F934F935F936F937F938F939F9333
:100DF000AF93BF93EF93FF93E0910702F091080246
:100E00001995FF91EF91BF91AF919F918F917F9134
:100E10006F915F914F913F912F910F900BBE0F906B
:100E20000FBE0F901F9018951F920F920FB60F9242
:100E300011240BB60F922F933F934F935F936F93B1
:100E40007F938F939F93AF93BF93EF93FF93E09123
:100E50000502F09106021995FF91EF91BF91AF91B4
:100E60009F918F917F916F915F914F913F912F91C2
:100E70000F900BBE0F900FBE0F901F9018951F92F2
:100E80000F920FB60F9211240BB60F922F933F9330
:100E90004F935F936F937F938F939F93AF93BF9382
:100EA000EF93FF938091B900887F803609F49CC04E
:100EB00068F5883209F45BC090F4803109F454C0BD
:100EC00038F4882309F4F6C0883009F44DC0F5C021
:100ED000883109F44CC0803209F45DC0EEC0803422
:100EE00009F468C048F4803309F455C0883309F028
:100EF000E4C080933703D8C0803509F44FC08835EB
:100F000009F45DC0883409F0D8C0D6C0883909F426
:100F1000C7C0A8F4883709F467C038F4883609F4E4
:100F200063C0803709F460C0C8C0883809F4B8C00D
:100F3000803909F45FC0803809F0BFC05BC0803BD6
:100F400009F486C038F4803A09F466C0883A09F496
:100F50007FC0B3C0803C09F4A7C0883C09F4A4C09A
:100F6000883B09F48AC0A9C080915A0310C09091AF
:100F7000590380915803981770F5E091590381E067
:100F80008E0F80935903F0E0E85CFC4F80818093E2
:100F9000BB0085EC86C0809337038EC0E091590377
:100FA00081E08E0F809359038091BB00F0E0E85CF4
:100FB000FC4F808390915903809158036EC0E0915B
:100FC000590381E08E0F809359038091BB00F0E0BC
:100FD000E85CFC4F80838091650381116DC081E0E6
:100FE0008093640384EA61C083E080936603109277
:100FF0003603CFCF80913603803208F051C0E091A4
:10100000360381E08E0F809336038091BB00F0E0C1
:10101000EA5EFC4F8083BDCF85EC8093BC001092CC
:10102000660380913603803230F4E0913603F0E0BD
:10103000EA5EFC4F10826091360370E0E091140389
:10104000F091150386E193E019951092360335C0AF
:1010500084E0809366031092130310921203E091D0
:101060001003F0911103199580911203811105C0AD
:1010700081E0809312031092F002E091130381E06B
:101080008E0F80931303F0E0E051FD4F8081809339
:10109000BB009091130380911203981708F479CF45
:1010A00085E88093BC0009C085EC8093BC00109259
:1010B000660303C010923703CEDAFF91EF91BF9120
:1010C000AF919F918F917F916F915F914F913F91E0
:1010D0002F910F900BBE0F900FBE0F901F90189581
:1010E000DC019FB7F8941396ED91FC911497208141
:1010F00015968C91822B80839FBF0895DC012FB7BA
:10110000F8941396ED91FC911497908115968C911B
:101110008095892380832FBF08958EBD00000DB474
:1011200007FEFDCF8EB5089590E0FC013197E231C6
:10113000F10508F04EC08827EE58FF4F8F4F0C94F2
:101140002216809180008F7703C0809180008F7D70
:1011500080938000089580918000877FF9CF84B5C7
:101160008F7702C084B58F7D84BD08958091B000D3
:101170008F7703C08091B0008F7D8093B000089579
:10118000809190008F7707C0809190008F7D03C081
:1011900080919000877F8093900008958091A000B7
:1011A0008F7707C08091A0008F7D03C08091A00041
:1011B000877F8093A0000895809120018F7707C0DA
:1011C000809120018F7D03C080912001877F8093D3
:1011D00020010895CF93DF93282F30E0F901EE51DD
:1011E000FE4F8491F901E456FE4FD491F901EA5A79
:1011F000FE4FC491CC2389F0811196DFEC2FF0E0F3
:10120000EE0FFF1FE85FFE4FA591B491EC91ED2327
:1012100081E090E021F480E002C080E090E0DF9186
:10122000CF910895CF93DF938091FD04D3DFEC013C
:101230008091FC04CFDFCC0FDD1F8C2BE091FB04F1
:10124000EF7094E0E99FF0011124E80FF11DE55ED5
:10125000FD4F80818093FB0480738031B9F0803230
:1012600089F54091990450919A0460919B04709182
:101270009C048091110290911202A0911302B091EE
:101280001402841B950BA60BB70B14C04091990454
:1012900050919A0460919B0470919C04809111027A
:1012A00090911202A0911302B0911402840F951F25
:1012B000A61FB71F8093110290931202A0931302EE
:1012C000B093140281E08093940480911102909174
:1012D0001202A0911302B09114028037904EAA49D5
:1012E000B10528F080E790EEAAE9B0E011C0809146
:1012F000110290911202A0911302B0911402813256
:101300009D41AA49B10560F480E29DE1AAE9B0E0FF
:101310008093110290931202A0931302B0931402CF
:10132000DF91CF9108951F93CF93DF93282F30E063
:10133000F901EE51FE4F8491F901E456FE4FD4912C
:10134000F901EA5AFE4FC491CC23C1F0162F811146
:10135000EBDEEC2FF0E0EE0FFF1FE45CFE4FA591FB
:10136000B4918FB7F894111105C09C91ED2FE095C1
:10137000E92302C0EC91ED2BEC938FBFDF91CF916D
:101380001F910895CF93DF9390E0FC01E456FE4F48
:101390002491FC01EA5AFE4F8491882361F190E088
:1013A000880F991FFC01EE5DFE4FC591D491FC01A1
:1013B000E45CFE4FA591B491611109C09FB7F89408
:1013C0008881209582238883EC912E230BC0623084
:1013D00061F49FB7F8943881822F809583238883A6
:1013E000EC912E2B2C939FBF06C08FB7F894E88109
:1013F0002E2B28838FBFDF91CF910895CF93DF935A
:10140000EC01888581110EC081E088878A85882358
:1014100011F062E001C060E08985B4DF8FE090E008
:101420000197F1F78985D6DE2B8530E041E0821700
:10143000930709F440E0842FDF91CF910895CF9373
:10144000FC01C48121E02093EF02C093CE021092F0
:101450006803109267038385682B8AE094E082D941
:1014600080916703813208F046C090916603911124
:10147000FCCF92E09093660391E0909365039FEF19
:10148000909337031092590380935803AFECB2E066
:1014900028E333E0F9019E2F921B981718F49D91D1
:1014A0009193F9CF10925A0380915A03CC0FC82B15
:1014B000C0935A0380916403813061F410926403F5
:1014C00080915A038093BB008091BC0083FDF8CFCC
:1014D00085EC01C085EE8093BC008091660382306C
:1014E000E1F3809137038F3F31F0809137038032F1
:1014F00011F08091370310926803109267031092E5
:10150000EF02CF9108950F931F93CF938C01C62FB5
:1015100096DF6C2F6460C80192DF6C2F6B7FC8016F
:101520008EDF83EC90E00197F1F7CF911F910F913F
:101530000895FF920F931F93CF93DF931F92CDB720
:10154000DEB78C01F62E962F907F692F642BC80191
:101550004983D9DF80E1F89EB00111244981642BD1
:10156000C8010F90DF91CF911F910F91FF90CBCFCA
:1015700041E0DFDF81E090E008951F93CF93DF9398
:10158000EC01E881F9810190F081E02D1995182F87
:10159000C8DA2A81213069F028F02230B9F02330EE
:1015A000E1F026C0111124C07C836B8381E08A8323
:1015B00020C0112311F01A821BC02B813C81621BB9
:1015C000730B6F307105A8F082E005C0112389F01C
:1015D0007C836B8383E08A830BC01123A9F32B8167
:1015E0003C81621B730B6F30710510F01A8201C0D1
:1015F00010E0812FDF91CF911F9108951F93CF931A
:10160000DF93182FC8E0D0E0612F617086E08BDE99
:1016100061E084E088DE60E084E085DE1695219755
:1016200099F7DF91CF911F910895AF92BF92CF921A
:10163000DF92EF92FF920F931F93CF93DF9320914E
:10164000F9043091FA048901330F220B330B000F98
:10165000111F221F331FC090F104D090F204E090BC
:10166000F304F090F404C00ED11EE21EF31E6C0DC4
:101670007D1D8E1D9F1D2FEF3FEFA9010E942A1691
:10168000E0E4AE2EF9E5BF2EA3E7CA2EB7E0DB2ECD
:10169000E12CF12C00E010E00E945316C22ED32E54
:1016A000E42EF52EC4E0D0E08C2DA8DFCD2CDE2C6E
:1016B000EF2CFF242197C1F780E0A0DF61E085E0F7
:1016C00032DE60E085E02FDE1092940410929E04DA
:1016D00010929D04DF91CF911F910F91FF90EF9099
:1016E000DF90CF90BF90AF900895CF93DF93CDB7A9
:1016F000DEB728970FB6F894DEBF0FBECDBF28E047
:10170000E7E7F2E0DE01119601900D922A95E1F7EC
:1017100020917305261710F46FEF620FFE013196CA
:10172000E60FF11DE60FF11D9081682F690F6068CB
:1017300040E08AE695E028960FB6F894DEBF0FBE2B
:10174000CDBFDF91CF91F5CECF93DF93AB01BC013D
:101750002AE08DE693E006D9EC016CEB72E08DE6B1
:1017600093E0EBD88C0F9D1FDF91CF910895FC0182
:1017700044815581608171818AE695E00C94E30192
:101780008F929F92AF92BF92CF92DF92EF92FF9291
:101790004B015C0120E432E44FE050E00E9400166F
:1017A0002093BF04C501B40120EA36E841E050E0CF
:1017B0000E9400168AE0C82ED12CE12CF12CCA011F
:1017C000B901A70196010E9400166093BE04C501ED
:1017D000B40120E137E240E050E00E940016CA0167
:1017E000B901A70196010E9400166093BD04C501CE
:1017F000B40128EE33E040E050E00E940016CA0138
:10180000B901A70196010E9400166093BC04C501AE
:10181000B40124E630E040E050E00E940016CA0126
:10182000B901A70196010E9400166093BB04C5018F
:10183000B401A70196010E940016B62ECA01B90193
:10184000A70196010E9400166093BA04B092B904F1
:1018500062E080E04ADF8AEE94E089DF8091BF0495
:1018600062E08A3010F085E001C086E03EDF409102
:10187000BF0450E060E070E02AE08AE695E072D8AC
:101880008EED94E074DF4091BE0450E060E070E0C3
:101890002AE08AE695E066D84091BD0450E060E019
:1018A00070E02AE08AE695E05DD84091BC0450E003
:1018B00060E070E02AE08AE695E054D88EED94E08E
:1018C00056DF4091BB0450E060E070E02AE08AE619
:1018D00095E048D84091BA0450E060E070E02AE01A
:1018E0008AE695E03FD84091B90450E060E070E0AE
:1018F0002AE08AE695E036D884EE94E038DF11D904
:101900006093950470939604809397049093980441
:10191000FF90EF90DF90CF90BF90AF909F908F900F
:10192000089540E061E08AE695E003DE8BE39FE105
:101930000197F1F70895CF93DF93BC018DE693E013
:101940000E947904EC016CEB72E08DE693E00E945A
:101950009D048C0F9D1FDF91CF91089524E0813A63
:10196000920789F0FC01608171816115710539F080
:101970004481558181EA94E00E94410404C081EAD7
:1019800094E00E94090481EA94E008958AEE94E0CC
:101990000E94600484EE94E00E9460048EED94E066
:1019A0000E94600488ED94E00E94600482ED94E05F
:1019B0000E9460048CEC94E00E94600486EC94E049
:1019C0000E94600480EC94E00E94600483EB94E049
:1019D0000E9460048DEA94E00E94600487EA94E02B
:1019E0000E94600481EA94E00C946004CF93DF933A
:1019F000CDB7DEB761970FB6F894DEBF0FBECDBF8F
:101A0000789484B5826084BD84B5816084BD85B5D9
:101A1000826085BD85B5816085BD80916E008160E5
:101A200080936E001092810080918100826080938B
:101A3000810080918100816080938100809180008D
:101A40008160809380008091B10084608093B100B8
:101A50008091B00081608093B0008091910082609D
:101A6000809391008091910081608093910080919A
:101A700090008160809390008091A10082608093AB
:101A8000A1008091A10081608093A1008091A000BD
:101A900081608093A0008091210182608093210168
:101AA00080912101816080932101809120018160DA
:101AB0008093200180917A00846080937A008091E5
:101AC0007A00826080937A0080917A0081608093AE
:101AD0007A0080917A00806880937A001092C10029
:101AE00011E01093000281E090E090939E048093B7
:101AF0009D04E0917D03F0917E0382E08083E0917C
:101B00007903F0917A031082E0917B03F0917C03DA
:101B10008FEC808310928503E0918103F091820322
:101B200086E08083E0917F03F09180038081806173
:101B30008083E0917F03F0918003808188608083BF
:101B4000E0917F03F0918003808180688083E09141
:101B50007F03F091800380818F7D808388EC92E009
:101B6000EADE10926A0310926903109268031092E1
:101B7000670310926603109365031092640361E09B
:101B800084E1D1DB61E085E1CEDB8091B9008E7F1D
:101B90008093B9008091B9008D7F8093B90088E46B
:101BA0008093B80085E48093BC0010926F0580910B
:101BB0007305823018F098E090936F05909174054A
:101BC000992339F0813029F480916F0584608093E6
:101BD0006F0562E370E080E090E00E94590560913B
:101BE00075058AE695E02BDC68EE73E080E090E016
:101BF0000E94590560E38AE695E085DC0BE416E473
:101C0000C8010197F1F760E38AE695E07CDCC80142
:101C10000197F1F760E38AE695E075DC83E592E0F1
:101C20000197F1F760E28AE695E06DDC60916F055F
:101C3000606240E08AE695E07CDC84E08093700599
:101C400040E06CE08AE695E074DC6BDE82E0809335
:101C5000710540E066E08AE695E06BDC40E062E01A
:101C60008AE695E066DC8BE39FE10197F1F788E077
:101C70008093750560E08AE695E0E1DB52DE61E085
:101C800085E380DB2091180530E0F901EE51FE4F2D
:101C90008491F901E456FE4FE491E0931B05F901AC
:101CA000EA5AFE4F14911123A9F081113DDAE12F78
:101CB000F0E0EE0FFF1FE45CFE4F8591949190934E
:101CC0001A058093190561E0809118055BDB86E1B8
:101CD00095E006DA80916C0381113EC01FB7F8943D
:101CE00080916B03811123C0EBE8F1E08491E1ED79
:101CF000F1E09491E82FF0E0EE0FFF1FEE5DFE4F54
:101D0000A591B491EC91E92319F461E085E30BDB33
:101D100061E085E337DB8CB580618CBD8CB5806478
:101D20008CBD61E084E32EDB61E083E32BDB8091FB
:101D30006B038F5F80936B031FBF8CB58F7D8CBD52
:101D40008CB5837F8CBD8CB58C7F8CBD8DB581604F
:101D50008DBD81E080936C0386E195E0CFD985E06D
:101D6000DCD980E0DAD9182F86E195E0B9D990E77F
:101D7000012F092786E195E0C1D986E0CED986E119
:101D800095E0AED986E195E0B9D981E0C6D9802F3A
:101D9000C4D986E195E0A4D986E195E0AFD985E084
:101DA000BCD980E0BAD9182F86E195E099D9E091A5
:101DB0001605F0911705EA5EFA4F80AD882389F089
:101DC00086E195E09BD98FE9A8D980E0A6D980E08B
:101DD000A4D980E0A2D98F71F82E86E195E080D950
:101DE00001C0F12CE0911605F0911705EA5EFA4F5B
:101DF00080ADF81204C01027107709F041C491DDBE
:101E000022E139E030930C0220930B0280916900AB
:101E10008F73806480936900EB9A30930A02209359
:101E20000902809169008F7C806180936900EA9A41
:101E300019821A821B821C82C0901005D090110555
:101E4000E0901205F0901305C114D104E104F104EF
:101E500019F486E090E069C080910B0590910C0523
:101E6000A0910D05B0910E05892B8A2B8B2B19F4AF
:101E700085E090E05AC0B0900F05009114051091D4
:101E80001505F801EC5BFF4F80819181A281B38140
:101E9000C816D906EA06FB0608F43FC0349640810E
:101EA0005181628173814C155D056E057F05A8F136
:101EB0008FEF8B0D8034A0F5D701C6010197A109E2
:101EC000B1098B0D911DA11DB11D481759076A0756
:101ED0007B0748F1C80112D983E01FD9D801D696F3
:101EE0008D919C91D797019711F48E2D16D98D2D38
:101EF00014D98C2D12D9FE0131966F017F0180E03B
:101F00000CD9D7018D937D018A2F8C198B15B8F3CD
:101F1000C801E6D880E090E008C081E090E005C00C
:101F200082E090E002C083E090E090930A05809305
:101F3000090567E672E08DE693E00E947904C980A6
:101F4000DA80EB80FC80C701B601FEDBD701C60159
:101F500080529D41AA49B1098135934CA105B10533
:101F600068F068E272E08DE693E00E947904C701B0
:101F7000B601EADBC12CD12C760108C081E090E0EB
:101F800090939E0480939D0480939404C0921102C8
:101F9000D0921202E0921302F092140264E872E00E
:101FA0008DE693E00E947904609111027091120213
:101FB0008091130290911402C7DB809111029091DD
:101FC0001202A0911302B0911402892B8A2B8B2B41
:101FD000D1F08091110290911202A0911302B09160
:101FE000140280329D41AA49B10568F08091110226
:101FF00090911202A0911302B09114028137904E79
:10200000AA49B10560F080E29DE1AAE9B0E08093C1
:10201000110290931202A0931302B09314026091E4
:102020001102709112028091130290911402FDDA54
:10203000609111027091120280911302909114022A
:102040009FDB6091110270911202809113029091B6
:102050001402EBDA64E670E080E090E00E9459053B
:1020600081E090E090939E0480939D0460E080E086
:102070003CDB61E080E039DB65EB72E08AE695E00D
:102080000E949D0461E081E130DB8DEA94E06FDB2A
:1020900063E080E02ADB81EA94E069DB63E089E0C9
:1020A00024DB6DE772E08AE695E00E94790463E044
:1020B00082E11BDB83EB94E05ADB1E018DE0280EEE
:1020C000311C412C512C320143945AE0852E912C25
:1020D000A12CB12C80919D0490919E04892B09F034
:1020E00006C1C0909504D0909604E0909704F090BB
:1020F00098040E949105A0EACA0EAFE0DA1EE11C26
:10210000F11CC616D706E806F90608F0F0C0809163
:10211000110290911202A0911302B09114028D87C6
:102120009E87AF87B88B6FEF72E08DE693E00E94D9
:1021300079044D855E856F8578892AE08DE693E088
:102140000E94B2046DEF72E08DE693E00E94790484
:102150002AE040E050E0BA018DE693E00E94B2042C
:102160008BEF92E0E8DBC0901005D0901105E09075
:102170001205F0901305C114D104E104F10419F41F
:1021800086E090E079C080910B0590910C05A091BC
:102190000D05B0910E05892B8A2B8B2B19F485E048
:1021A00090E06AC020910F05298B009114051091D1
:1021B0001505F801EC5BFF4F80819181A281B3810D
:1021C000C816D906EA06FB0608F44EC034964081CC
:1021D0005181628173814C155D056E057F0508F4A0
:1021E00043C0822F8150803408F041C0D701C6011E
:1021F0000197A109B109820F911DA11DB11D4817B9
:1022000059076A077B07B0F1C8010E947E0886E083
:102210000E948D08C8010E947008C8010E947E08B3
:1022200082E00E948D08D801D6968D919C91D79717
:10223000019719F48E2D0E948D088D2D0E948D0816
:102240008C2D0E948D087101F70181917F010E9400
:102250008D088E2D821929898217B0F3C8010E943A
:10226000700880E090E008C081E090E005C082E066
:1022700090E002C083E090E090930A058093090506
:102280006BED72E08DE693E00E947904C090090541
:10229000D0900A050D2C000CEE08FF08F7FE14C0C4
:1022A000E0916D03F0916E030190F081E02D6DE2FD
:1022B0008DE693E0199544275527BA014C195D091D
:1022C0006E097F092AE003C02AE0B701A6018DE666
:1022D00093E00E94B2046CEB72E08DE693E00E9402
:1022E0009D0481E090E090939E0480939D048BE395
:1022F0000E94EA088C0180914C0490914D04801753
:102300009107E1F060E089E0F0D90115110551F085
:102310000130110599F463EC72E08AE695E00E94C1
:102320009D040CC06FEB72E08AE695E00E949D046C
:102330006DE770E080E090E00E94590510934D0435
:1023400000934C0411E082E294E058D8882309F409
:1023500052C08091110290911202A0911302B0918B
:102360001402C0909904D0909A04E0909B04F090DD
:102370009C04C80ED91EEA1EFB1E91E7C91690EEFA
:10238000D9069AE9E906F10480F4A0E2CA16ADE1A3
:10239000DA06AAE9EA06F10478F430E2C32E3DE158
:1023A000D32E3AE9E32EF12C07C020E7C22E20EE0F
:1023B000D22E2AE9E22EF12C1093940410929E045E
:1023C00010929D040E949105609395047093960469
:1023D0008093970490939804C0921102D0921202B5
:1023E000E0921302F092140262E370E080E090E069
:1023F0000E945905A8CF11E086E194E00E94FE09F1
:10240000882309F452C0C0901102D0901202E090CB
:102410001302F09014028091990490919A04A09173
:102420009B04B0919C04C81AD90AEA0AFB0AB1E7D6
:10243000CB16B0EEDB06BAE9EB06F10480F4E0E27D
:10244000CE16EDE1DE06EAE9EE06F10478F490E25C
:10245000C92E9DE1D92E9AE9E92EF12C07C080E71B
:10246000C82E80EED82E8AE9E82EF12C1093940421
:1024700010929E0410929D040E9491056093950411
:10248000709396048093970490939804C0921102DD
:10249000D0921202E0921302F092140262E370E012
:1024A00080E090E00E945905A7CF8AE394E065D8C8
:1024B000882309F46BC08091990490919A04A091AB
:1024C0009B04B0919C0482339105A105B105D1F123
:1024D000CCF481309105A105B10549F10A97A10518
:1024E000B10509F04DC082E390E0A0E0B0E0809338
:1024F000990490939A04A0939B04B0939C048CEC51
:1025000094E03DC084369105A105B10551F1843FA9
:102510009140A105B105A1F54092990450929A0409
:1025200060929B0470929C0480EC94E028C080929E
:10253000990490929A04A0929B04B0929C0486EC19
:1025400094E01DC084E690E0A0E0B0E080939904A0
:1025500090939A04A0939B04B0939C0482ED94E022
:102560000EC084EF91E0A0E0B0E0809399049093D6
:102570009A04A0939B04B0939C0488ED94E0EED958
:1025800063E080E0B2D881EA94E0F1D88EE294E092
:102590000E94BD0A882309F457C06EEB72E0CE0199
:1025A00007960E9465046EEB72E0CE0101960E94D0
:1025B00065049091F00481E089278093F0048130D4
:1025C00039F060E082E20E94930962E173E006C0A4
:1025D00061E082E20E9493096EE073E0CE0107960B
:1025E0000E941B046AE073E0CE0101960E941B0466
:1025F0008B859C85EF80F8840D811E81E114F104A8
:10260000A9F0009799F0080F191FB801CE010196A3
:102610000E94E203882351F029813A818D819E81B5
:10262000B701820F931F33D61E830D8363E089E0C9
:102630005CD8CE0101969BD8CE0101960E94600421
:10264000CE0107960E946004809194048823A9F02B
:102650006091110270911202809113029091140204
:102660008FD86091110270911202809113029091A3
:1026700014020E94150B109294040E94CD022ACDE0
:1026800087EA92E058D960E080E02FD86AE972E0EA
:102690008AE695E00E94790461E080E026D869E846
:1026A00072E08AE695E00E94790468E873E180E0D0
:1026B00090E00E945905A3CB8F929F92AF92BF9258
:1026C000FF920F931F93CF93DF93EDE6F3E0138216
:1026D000128288EE93E0A0E0B0E084839583A68325
:1026E000B78323E832E03183208325EC30E035875F
:1026F000248724EC30E03787268720EC30E0318BCC
:10270000208B21EC30E0338B228B22EC30E0358BB8
:10271000248B26EC30E0378B268B118E128E138E95
:10272000148EEAE0F4E01382128284839583A683F8
:10273000B78383E992E091838083EAE6F5E0138230
:10274000128289EA92E09183808387E2848384E124
:10275000808784E08187128698E0F92EF386E6E18F
:10276000F5E001E010E01183008395E392834FEFE1
:1027700057E060E070E04683578360877187882464
:102780008A942FE1922EA12CB12C82869386A48666
:10279000B5864FEF5FE360E070E046875787608B58
:1027A000718B428B538B648B758B4FEF5FE760E0CF
:1027B00070E0468B578B608F718F428F538F648F81
:1027C000758F4FEF5FEF61E070E0468F578F60A32A
:1027D00071A34FEF5FEF63E070E042A353A364A3E4
:1027E00075A317A216A211A610A613A612A615A6C7
:1027F00014A617A616A611AA10AA13AB02AB15AB06
:1028000004AB10AE11AE12AE83AF14AE95E0909350
:10281000530597E090935405F09255051092560594
:1028200010925705109258051092590540E450E057
:1028300060E070E040935A0550935B0560935C053F
:1028400070935D0580925E0590925F05A092600591
:10285000B092610517AA16AA3FE7832E912CA12CEE
:10286000B12C8092620590926305A0926405B092AB
:102870006505ABE0B5E0C2E08C2E912CA12CB12C0B
:102880008D929D92AD92BC92139714968C9314974F
:102890001A96FC93EE93199710920A051092090567
:1028A00015964D935D936D937C931897AEEFB4E0BE
:1028B00044E150E060E070E04D935D936D937C9354
:1028C000139714968C9314971A96FC93EE9319977A
:1028D00048E950E060E070E040936605509367057A
:1028E000609368057093690548E450E060E070E02B
:1028F00015964D935D936D937C931897CBEFD4E031
:1029000082E1898383E18A8360E082E10E94C209D7
:1029100060E08A810E94C20961E089810E94930976
:1029200061E08A810E9493091882C1EFD4E085EDAD
:102930009DEF9987888761E085E00E94C20961E088
:1029400084E00E94C20961E086E00E94C20961E061
:1029500087E00E94C20961E087E00E94930960E07D
:1029600087E00E94930961E084E00E94930960E09F
:1029700084E00E94930961E085E00E94930960E091
:1029800085E00E94930980E393E1A7EBB0E08883A0
:102990009983AA83BB836EEB72E081EA94E00E9484
:1029A00065046EEB72E087EA94E00E9465046EEBCA
:1029B00072E08DEA94E00E9465046EEB72E083EBB6
:1029C00094E00E9465046EEB72E080EC94E00E945B
:1029D00065046EEB72E086EC94E00E9465046EEB99
:1029E00072E08CEC94E00E9465046EEB72E082ED84
:1029F00094E00E9465046EEB72E088ED94E00E9422
:102A000065046EEB72E08EED94E00E9465046EEB5F
:102A100072E084EE94E00E9465046EEB72E08AEE50
:102A200094E00E946504C4E9D4E082E390E0A0E071
:102A3000B0E08D839E83AF83B88785E090E09C876C
:102A40008B8718821A87098766E573E080EC94E02B
:102A50000E941B046FE473E086EC94E00E941B0468
:102A600068E473E08CEC94E00E941B0461E473E082
:102A700082ED94E00E941B046AE373E088ED94E029
:102A80000E941B0446E050E067EC72E081EA94E0AB
:102A90000E94410466E373E08DEA94E00E941B0407
:102AA00063E373E083EB94E00E941B0461E373E053
:102AB0008EED94E00E941B046BE273E084EE94E0E0
:102AC0000E941B0466E173E08AEE94E00E941B04FE
:102AD0001092F0040E94910569837A838B839C8312
:102AE000C6E4D4E089ED9EECAFE9B0E48A879B8729
:102AF000AC87BD8788E0E7E3F2E0A4E5B4E00190AD
:102B00000D928A95E1F788E0EFE3F2E0ACE5B4E0FE
:102B100001900D928A95E1F788E0E7E4F2E0A4E6FF
:102B2000B4E001900D928A95E1F788E0EFE4F2E0DD
:102B3000ACE6B4E001900D928A95E1F788E0E7E514
:102B4000F2E0A4E7B4E001900D928A95E1F788E005
:102B5000EFE5F2E0ACE7B4E001900D928A95E1F781
:102B600088E0E7E6F2E0A4E8B4E001900D928A95EF
:102B7000E1F788E0EFE6F2E0ACE8B4E001900D9216
:102B80008A95E1F762E08BE30E94C2091F821E82F0
:102B9000EAE3F4E01282158223EA32E031832083F3
:102BA0001086F18681E082878387EEE2F4E012826C
:102BB00015823183208310869CE3918782878387E7
:102BC000E2E2F4E0128215823183208310869EE1D6
:102BD000918782878387E6E1F4E012821582318350
:102BE000208310869FE1918782878387DF91CF9131
:102BF0001F910F91FF90BF90AF909F908F9008957D
:102C0000A1E21A2EAA1BBB1BFD010DC0AA1FBB1FF0
:102C1000EE1FFF1FA217B307E407F50720F0A21B62
:102C2000B30BE40BF50B661F771F881F991F1A94CF
:102C300069F760957095809590959B01AC01BD01F9
:102C4000CF010895EE0FFF1F881F8BBF0790F691ED
:102C5000E02D1994E894DF93CF93FC01DB012ED390
:102C60007F936F93E9019A01AC01BF93AF933F93B8
:102C70002F93DF0123D326F46C1B7D0B820B930B68
:102C80009E01EB01FC01DDD0AF91BF912F913F91EF
:102C9000D8D0BE01CF01F9012F913F91CF91DF91A3
:102CA0000895689401C0E894F92FF12B0AF027C029
:102CB000A0E0B0E0EDE5F6E193C0092E05941AF42A
:102CC00079D0112392F4F0E80F26FFEFE094F0940E
:102CD00000951095B094C094D094A194BF0ACF0AE7
:102CE000DF0AEF0AFF0A0F0B1F0B13D007FC62D09D
:102CF000CDB7DEB7ECE090C0689401C0E8948F9245
:102D00009F92CF93DF9305D0DF91CF919F908F90CB
:102D1000089588249924F401E401B0E49F93AA273C
:102D20009A158B049C04ED05FE05CF05D007A1077D
:102D300098F4AD2FDC2FCF2FFE2FE92D982C892E64
:102D4000982F872F762F652F542F432F322F22272E
:102D5000B85031F7BF9127C01B2EBF91BB27220F60
:102D6000331F441F551F661F771F881F991F881C1C
:102D7000991CEE1FFF1FCC1FDD1FAA1FBB1F8A144B
:102D80009B04EC05FD05CE05DF05A007B10748F063
:102D90008A189B08EC09FD09CE09DF09A00BB10BCD
:102DA00021601A94E1F62EF49401AF01BE01CD0129
:102DB000000C08956095709580959095309540959C
:102DC000509521953F4F4F4F5F4F6F4F7F4F8F4F24
:102DD0009F4F08952F923F924F925F926F927F92F2
:102DE0008F929F92AF92BF92CF92DF92EF92FF921B
:102DF0000F931F93CF93DF93CDB7DEB7CA1BDB0BC7
:102E00000FB6F894DEBF0FBECDBF19942A8839885B
:102E100048885F846E847D848C849B84AA84B98472
:102E2000C884DF80EE80FD800C811B81AA81B9817E
:102E3000CE0FD11D0FB6F894DEBF0FBECDBFED0192
:102E400008953CD2460F571FC81FD91F08F431966A
:102E50000895CF93DF938230910510F482E090E0E3
:102E6000E0917805F091790520E030E0C0E0D0E015
:102E7000309711F14081518148175907C0F0481728
:102E8000590761F482819381209719F09B838A838B
:102E90002BC0909379058093780526C021153105C4
:102EA00019F04217530718F49A01BE01DF01EF0130
:102EB0000280F381E02DDCCF2115310509F1281BBB
:102EC000390B2430310590F412968D919C91139713
:102ED0006115710521F0FB019383828304C09093F7
:102EE000790580937805FD01329644C0FD01E20F1B
:102EF000F31F81939193225031092D933C933AC053
:102F00002091760530917705232B41F4209117020B
:102F100030911802309377052093760520911502A1
:102F2000309116022115310541F42DB73EB740917D
:102F3000190250911A02241B350BE0917605F0918D
:102F40007705E217F307A0F42E1B3F0B281739076C
:102F500078F0AC014E5F5F4F2417350748F04E0FF5
:102F60005F1F50937705409376058193919302C03C
:102F7000E0E0F0E0CF01DF91CF9108950F931F9330
:102F8000CF93DF93009709F48CC0FC013297138232
:102F9000128200917805109179050115110581F4CF
:102FA00020813181820F931F209176053091770522
:102FB0002817390779F5F0937705E093760571C006
:102FC000D80140E050E0AE17BF0750F412962D91A3
:102FD0003C911397AD012115310509F1D901F3CFCA
:102FE0009D01DA013383228360817181860F971FEF
:102FF0008217930769F4EC0128813981260F371F66
:103000002E5F3F4F318320838A819B81938382830C
:10301000452B29F4F0937905E093780542C0139687
:10302000FC93EE931297ED01499159919E01240F63
:10303000351FE217F30771F480819181840F951F8A
:10304000029611969C938E938281938113969C9302
:103050008E931297E0E0F0E0D80112968D919C914A
:103060001397009719F0F8018C01F6CF8D919C9180
:1030700098012E5F3F4F820F931F2091760530916C
:1030800077052817390769F4309729F410927905E4
:103090001092780502C01382128210937705009374
:1030A0007605DF91CF911F910F9108956F927F92D6
:1030B0008F929F92AF92BF92CF92DF92EF92FF9248
:1030C0000F931F93CF93DF93EC01009781F4CB0113
:1030D000DF91CF911F910F91FF90EF90DF90CF90F4
:1030E000BF90AF909F908F907F906F90B2CEFC0179
:1030F000E60FF71F9C0122503109E217F30708F48D
:10310000A8C0D9010D911C91119706171707A8F0B7
:103110000530110508F49BC0C8010497861797076E
:1031200008F495C002501109061B170B0193119367
:103130006D937C93CF0122DF8AC05B01A01AB10A94
:103140004C01800E911EA0917805B091790540E068
:1031500050E0E12CF12C109709F44AC0A815B905EC
:10316000D1F56D907C901197630182E0C80ED11C5F
:10317000CA14DB0480F1A3014A195B096A0182E0E9
:10318000C80ED11C1296BC9012971396AC91B5E064
:10319000CB16D10440F0B282A38351834083D9017E
:1031A0006D937C930AC00E5F1F4FC301800F911F68
:1031B000F90191838083EB2DFA2FE114F10431F0B2
:1031C000D7011396FC93EE93129741C0F0937905C3
:1031D000E09378053CC08D919C9111974817590751
:1031E00008F4AC017D0112960D90BC91A02DB3CFD7
:1031F000809176059091770588159905E1F4461739
:103200005707C8F48091150290911602009741F477
:103210008DB79EB74091190250911A02841B950BED
:10322000E817F907B0F4F0937705E0937605F90114
:10323000718360830CC0CB010CDE7C01009749F0E8
:10324000A801BE011BD0CE0199DEC70104C0CE018A
:1032500002C080E090E0DF91CF911F910F91FF902D
:10326000EF90DF90CF90BF90AF909F908F907F9026
:103270006F90089581E090E0F8942FC0FB01DC018D
:1032800002C001900D9241505040D8F70895FB01C3
:10329000DC0101900D920020E1F70895FB01DC01B3
:1032A00005900D920020E1F70895FC0105900020A3
:1032B000E9F7809590958E0F9F1F0895A29FB0010A
:1032C000B39FC001A39F700D811D1124911DB29F5A
:1032D000700D811D1124911D089511E0C0EBD1E006
:1032E00000E005C0802FFE01ADDC2196011DC13B31
:0C32F000D10780E00807B1F7F894FFCF89
:1032FC00012A032A032A032A032A032A032A032A5C
:10330C0003201D9A0000007A0580000002040003CF
:10331C000001100302000003020100060004000675
:10332C00050020060504000000000000001818002D
:10333C0000000000031B1B000000001818181800E8
:10334C000000031B1B1B1B00001818181818180072
:10335C00031B1B1B1B1B1B18181818181818181BE1
:10336C001B1B1B1B1B1B1B000040001400540000EC
:10337C000000006602E30130020E022202AC0200E1
:10338C00000000B20383037B036C035E035D030048
:10339C00000000FE0900000000B80AE30100000074
:1033AC0000E003E3014B47354E4949000D0A005B31
:0E33BC002B5D0020202000353020487A2000B4
:020000023000CC
:10E000000D9489F10D94B2F10D94B2F10D94B2F129
:10E010000D94B2F10D94B2F10D94B2F10D94B2F1F0
:10E020000D94B2F10D94B2F10D94B2F10D94B2F1E0
:10E030000D94B2F10D94B2F10D94B2F10D94B2F1D0
:10E040000D94B2F10D94B2F10D94B2F10D94B2F1C0
:10E050000D94B2F10D94B2F10D94B2F10D94B2F1B0
:10E060000D94B2F10D94B2F10D94B2F10D94B2F1A0
:10E070000D94B2F10D94B2F10D94B2F10D94B2F190
:10E080000D94B2F10D94B2F10D94B2F10D94B2F180
:10E090000D94B2F10D94B2F10D94B2F10D94B2F170
:10E0A0000D94B2F10D94B2F10D94B2F10D94B2F160
:10E0B0000D94B2F10D94B2F10D94B2F10D94B2F150
:10E0C0000D94B2F10D94B2F10D94B2F10D94B2F140
:10E0D0000D94B2F10D94B2F10D94B2F10D94B2F130
:10E0E0000D94B2F141546D656761323536300041AF
:10E0F000726475696E6F206578706C6F72657220DE
:10E1000073746B3530305632206279204D4C530099
:10E11000426F6F746C6F616465723E004875683F52
:10E1200000436F6D70696C6564206F6E203D200048
:10E130004350552054797065202020203D20005FF9
:10E140005F4156525F415243485F5F3D2000415658
:10E1500052204C696243205665723D20004743437C
:10E160002056657273696F6E203D20004350552024
:10E1700049442020202020203D20004C6F7720663D
:10E18000757365202020203D20004869676820665F
:10E190007573652020203D200045787420667573D6
:10E1A00065202020203D20004C6F636B2066757336
:10E1B000652020203D20004D617220203720323024
:10E1C000313300312E362E3800342E332E350056A2
:10E1D00023202020414444522020206F7020636F70
:10E1E00064652020202020696E73747275637469E1
:10E1F0006F6E2061646472202020496E74657272B3
:10E20000757074006E6F20766563746F7200726A49
:10E210006D702020006A6D70200057686174207056
:10E220006F72743A00506F7274206E6F7420737541
:10E2300070706F72746564004D7573742062652030
:10E2400061206C6574746572002000577269747483
:10E25000696E672045450052656164696E672045B7
:10E26000450045452065727220636E743D00504F35
:10E27000525400303D5A65726F2061646472003FF1
:10E280003D43505520737461747300403D454550C3
:10E29000524F4D207465737400423D426C696E6B41
:10E2A000204C454400453D44756D70204545505215
:10E2B0004F4D00463D44756D7020464C415348001B
:10E2C000483D48656C70004C3D4C69737420492F83
:10E2D0004F20506F72747300513D51756974005234
:10E2E0003D44756D702052414D00563D73686F7707
:10E2F00020696E7465727275707420566563746FF0
:10E30000727300593D506F727420626C696E6B00BD
:10E310002A0011241FBECFEFD1E2DEBFCDBF01E046
:10E320000CBF12E0A0E0B2E0EEE1FDEF03E00BBFB6
:10E3300002C007900D92A030B107D9F712E0A0E01B
:10E34000B2E001C01D92AE30B107E1F70F9460F367
:10E350000D948DFE01E20EBF0FEF0DBF11241FBE05
:10E360000D9460F30D9400F020E030E040ED57E0B4
:10E3700005C0FA013197F1F72F5F3F4F2817390792
:10E38000C0F308959C01260F311DC901A0E0B0E043
:10E390002F5F3F4FABBFFC018791882361F08093D3
:10E3A000C6008091C00086FFFCCF8091C0008064D1
:10E3B0008093C000EACF08958DE08093C6008091DD
:10E3C000C00086FFFCCF8091C00080648093C000B5
:10E3D0008AE08093C6008091C00086FFFCCF8091C8
:10E3E000C00080648093C00008950F94C2F10F9420
:10E3F000DCF10895FC019081992359F09093C600B7
:10E400008091C00086FFFCCF8091C0008064809323
:10E41000C0003196992379F70895282F982F929567
:10E420009F70892F805D8A3308F0895F8093C600D2
:10E430008091C00086FFFCCF8091C00080648093F3
:10E44000C000822F8F70982F905D9A3308F0995FEB
:10E450009093C6008091C00086FFFCCF8091C000E1
:10E4600080648093C00008959C01FB01853691056E
:10E470001CF46330710594F0C90164E670E00F94F8
:10E480002EFE605D7F4F6093C6008091C00086FFC6
:10E49000FCCF8091C00080648093C0002B30310598
:10E4A00014F43297B4F0C90164E670E00F942EFEC4
:10E4B0006AE070E00F942EFE605D7F4F6093C600AF
:10E4C0008091C00086FFFCCF8091C0008064809363
:10E4D000C000C9016AE070E00F942EFEC0968093E0
:10E4E000C6008091C00086FFFCCF8091C000806490
:10E4F0008093C00008951F93182F8EE692EE60E07F
:10E500000F94C2F11093C6008091C00086FFFCCF2B
:10E510008091C00080648093C0000F94DCF11F9153
:10E5200008952F923F924F925F926F927F928F92B7
:10E530009F92AF92BF92CF92DF92EF92FF920F9392
:10E540001F93DF93CF93CDB7DEB762970FB6F894E2
:10E55000DEBF0FBECDBF382E622ECA01DB015C01CB
:10E560006D01772420E2222E2E010894411C511CBB
:10E570008BC081E0A81680E0B80681E0C80680E084
:10E58000D80628F0C601AA27BB270F940DF2BB2797
:10E59000AD2D9C2D8B2D0F940DF28A2D0F940DF225
:10E5A0002092C6008091C00086FFFCCF8091C00001
:10E5B00080648093C0009DE29093C6008091C0006B
:10E5C00086FFFCCF8091C00080648093C0002092C1
:10E5D000C6008091C00086FFFCCF8091C00080649F
:10E5E0008093C00019828601750188249924A1E0D6
:10E5F0003A1651F03A1620F0B2E03B1661F409C029
:10E600000BBFF701779007C0C7010F9477FE782EF4
:10E6100002C0F7017080872D0F940DF22092C60082
:10E620008091C00086FFFCCF8091C0008064809301
:10E63000C000872D8052F401EF70F0708F3520F408
:10E64000E40DF51D708204C0E40DF51D8EE280839B
:10E650000894E11CF11C011D111D0894811C911CE2
:10E6600090E18916910409F0C2CF80E190E0A0E02A
:10E67000B0E0A80EB91ECA1EDB1E198AC2010F9493
:10E68000FAF10F94DCF16A94662009F072CF629679
:10E690000FB6F894DEBF0FBECDBFCF91DF911F91B3
:10E6A0000F91FF90EF90DF90CF90BF90AF909F9031
:10E6B0008F907F906F905F904F903F902F90089534
:10E6C0002F923F924F925F926F927F928F929F9282
:10E6D000AF92BF92CF92DF92EF92FF920F931F9370
:10E6E000DF93CF93CDB7DEB7CD53D1400FB6F894BB
:10E6F000DEBF0FBECDBF01E20EBF0FEF0DBF94B75F
:10E70000F894A89514BE80916000886180936000A1
:10E7100010926000789493FF05C0E0910002F091A0
:10E7200001021995279A2F9A8091C00082608093E8
:10E73000C00080E18093C40088E18093C1000000A4
:10E74000EE24FF24870144E0A42EB12CCC24DD2448
:10E7500024C0C5010197F1F70894E11CF11C011DCB
:10E76000111D21E2E2162EE4F20620E0020720E06D
:10E77000120718F031E0C32ED12CC801B70127ECE5
:10E780003BE140E050E00F9441FE611571058105C9
:10E79000910519F485B1805885B98091C00087FD35
:10E7A00003C0C114D104A9F2A6014F5F5F4FC25E3E
:10E7B000DE4F59834883CE51D140C25EDE4F8881FF
:10E7C0009981CE51D140019711F00D9410FEC05D9A
:10E7D000DE4F19821882C053D14060E0C15DDE4F28
:10E7E0001882CF52D14088249924C35DDE4F19820C
:10E7F0001882CD52D140C05EDE4F188219821A8233
:10E800001B82C052D140CE5CDE4F188219821A8220
:10E810001B82C253D140EE24FF2487010BBFF701B6
:10E8200007911691C45CDE4F19830883CC53D14005
:10E830000D940BFEC25EDE4F28813981CE51D1404E
:10E840002130310509F52091C600C25EDE4F1982E4
:10E850001882CE51D14022C02F5F3F4F4F4F5F4FA4
:10E86000213082E138078AE7480780E0580780F0C6
:10E87000C45CDE4FE881F981CC53D140EF5FFF4F9C
:10E8800019F0EE27FF27099420E030E040E050E047
:10E890008091C00087FFE0CF2091C600C35DDE4FAE
:10E8A00048815981CD52D1404F5F5F4FC35DDE4FEC
:10E8B00059834883CD52D140213209F063C64A3092
:10E8C000510508F05FC60894811C911C53E0851621
:10E8D000910409F059C600E010E018C081E280936D
:10E8E000C6008091C00086FFFCCF8091C00080648C
:10E8F0008093C0002F5F3F4F2931310579F70F9486
:10E90000DCF10F5F1F4F0530110519F020E030E0FA
:10E91000E5CF10920A0210920B0210920C02109294
:10E920000D02109206021092070210920802109235
:10E930000902109202021092030210920402109235
:10E9400005028FEE90EE60E00F94F5F180E191EE1C
:10E9500060E00F94C2F18091C00087FFFCCF9091DE
:10E96000C600903608F09F759032B8F09093C600BC
:10E970008091C00086FFFCCF8091C00080648093AE
:10E98000C000A0E2A093C6008091C00086FFFCCF2B
:10E990008091C00080648093C000983409F4D7C18E
:10E9A0009934B8F4923409F459C1933458F490333B
:10E9B00019F1903308F4E3C59F33A1F1903409F0C5
:10E9C000DEC5BDC0953409F470C1963409F0D7C5D1
:10E9D00098C1923509F42BC2933538F49C3409F46C
:10E9E000F5C1913509F0CBC518C2963509F445C279
:10E9F000993509F0C4C567C483E792EE62E00F94CD
:10EA0000F5F110920602109207021092080210927D
:10EA1000090210920A0210920B0210920C0210923C
:10EA20000D0213C18FE792EE62E00F94F5F18FEEC5
:10EA300090EE60E00F94F5F181E291EE60E00F94CA
:10EA4000C2F187EB91EE60E00F94F5F180E391EE77
:10EA500060E00F94C2F184EE90EE60E00F94F5F167
:10EA60008FE391EE60E00F94C2F186E090E061E008
:10EA700070E00F9434F20F94DCF18DE591EE60E0DC
:10EA80000F94C2F189EC91EE60E00F94F5F18EE401
:10EA900091EE60E00F94C2F183EC91EE60E00F9490
:10EAA000F5F18CE691EE60E00F94C2F18EE10F94E7
:10EAB0000DF288E90F940DF281E00F940DF20F949E
:10EAC000DCF18BE791EE60E00F94C2F119E0E0E039
:10EAD000F0E010935700E4918E2F0F940DF20F94F5
:10EAE000DCF18AE891EE60E00F94C2F1E3E0F0E03F
:10EAF00010935700E4918E2F0F940DF20F94DCF1D8
:10EB000089E991EE60E00F94C2F1E2E0F0E0109349
:10EB10005700E4918E2F0F940DF20F94DCF188EAE8
:10EB200091EE60E00F94C2F1E1E0F0E01093570045
:10EB30001491812F0F940DF20F94DCF107CF8BE825
:10EB400092EE62E00F94F5F18BE492EE60E00F94A8
:10EB5000F5F10F94DCF100E010E019C0C8016F2D51
:10EB60000F947FFEFF2031F489E492EE60E00F9471
:10EB7000C2F10BC0F092C6008091C00086FFFCCFAE
:10EB80008091C00080648093C0000F5F1F4FC80158
:10EB900081519F41A0E0B0E0ABBFFC01F790BAE229
:10EBA000FB1621F0E2E000301E07C1F60F94DCF105
:10EBB0000F94DCF187E592EE60E00F94F5F10F948D
:10EBC000DCF1CC24DD2400E010E01EC0C8010F946D
:10EBD00077FEF82E882331F489E492EE60E00F94FA
:10EBE000C2F10BC08093C6008091C00086FFFCCFAD
:10EBF0008091C00080648093C000FE1419F00894D6
:10EC0000C11CD11C0F5F1F4FC80181519F41A0E063
:10EC1000B0E0ABBFFC01E790FAE2EF1621F022E092
:10EC20000030120799F60F94DCF10F94DCF182E6C4
:10EC300092EE60E00F94C2F1C60161E070E00F94C3
:10EC400034F20F94DCF10F94DCF110920202109276
:10EC50000302109204021092050278CE89E992EE26
:10EC600062E00F94F5F1279A2F9A16C02F9880E052
:10EC700090E0E0EDF7E03197F1F7019684369105E9
:10EC8000C1F72F9A80E090E0E0EDF7E03197F1F7DF
:10EC9000019684369105C1F78091C00087FFE6CFC9
:10ECA0008091C00087FFFCCF64C485EA92EE62E0E9
:10ECB0000F94F5F140910202509103026091040219
:10ECC0007091050281E020E10F9491F2809102029F
:10ECD00090910302A0910402B091050280509F4FD1
:10ECE000AF4FBF4F8093020290930302A0930402A0
:10ECF000B093050280509041A040B04008F426CE69
:10ED0000A4CF83EB92EE62E00F94F5F140910602FE
:10ED100050910702609108027091090280E020E1A1
:10ED20000F9491F28091060290910702A09108023F
:10ED3000B091090280509F4FAF4FBF4F80930602A2
:10ED400090930702A0930802B0930902FFCD80ECD4
:10ED500092EE62E00F94F5F183E792EE60E00F949B
:10ED6000F5F18FE792EE60E00F94F5F18BE892EE0B
:10ED700060E00F94F5F189E992EE60E00F94F5F10F
:10ED800085EA92EE60E00F94F5F183EB92EE60E09D
:10ED90000F94F5F180EC92EE60E00F94F5F187ECC2
:10EDA00092EE60E00F94F5F188ED92EE60E00F9442
:10EDB000F5F18FED92EE60E00F94F5F18AEE92EEB0
:10EDC00060E00F94F5F183E093EEBDCD87EC92EE19
:10EDD00062E00F94F5F181E40F947BF282E40F94EA
:10EDE0007BF283E40F947BF284E40F947BF285E45E
:10EDF0000F947BF286E40F947BF287E40F947BF20E
:10EE000088E40F947BF28AE40F947BF28BE40F94F6
:10EE10007BF28CE40F947BF299CD88ED92EE62E068
:10EE20000F94F5F1772473948824992409C48FED05
:10EE300092EE62E00F94F5F140910A0250910B02BC
:10EE400060910C0270910D0282E020E10F9491F22A
:10EE500080910A0290910B02A0910C02B0910D02D8
:10EE600080509F4FAF4FBF4F80930A0290930B0289
:10EE7000A0930C02B0930D0269CD8AEE92EE62E08F
:10EE80000F94F5F184EE90EE60E00F94F5F18FECC5
:10EE900091EE60E00F94F5F1662477244301CC5D98
:10EEA000DE4F19821882C452D140D401C301B695F5
:10EEB000A79597958795CA5DDE4F88839983AA8326
:10EEC000BB83C652D140CC5DDE4FA881B981C4520C
:10EED000D1401196CC5DDE4FB983A883C452D14096
:10EEE000CD0162E070E00F9434F2B0E2B093C6005E
:10EEF0008091C00086FFFCCF8091C0008064809329
:10EF0000C000EDE2E093C6008091C00086FFFCCF18
:10EF10008091C00080648093C000F0E2F093C6004E
:10EF20008091C00086FFFCCF8091C00080648093F8
:10EF3000C000CA5DDE4FE880F9800A811B81C6529D
:10EF4000D140BB27A12F902F8F2D0F940DF2CA5DBA
:10EF5000DE4F8881C652D1400F940DF2B0E2FB2EF5
:10EF6000F092C6008091C00086FFFCCF8091C00067
:10EF700080648093C0000DE30093C6008091C000C0
:10EF800086FFFCCF8091C00080648093C00010E2B7
:10EF90001093C6008091C00086FFFCCF8091C00016
:10EFA00080648093C0008BBEF3012791C65DDE4F65
:10EFB0002883CA52D140A22EBB24CC24DD2408943D
:10EFC000611C711C811C911C8BBEF3018791282E42
:10EFD0003324442455240894611C711C811C911C09
:10EFE0008BBEF3013791C55DDE4F3883CB52D140E4
:10EFF0000894611C711C811C911C8BBEF30147910C
:10F00000C45DDE4F4883CC52D140ADEFEA2EAFEF66
:10F01000FA2EAFEF0A2FAFEF1A2F6E0C7F1C801E57
:10F02000911E142D032DF22CEE24EA0CFB1C0C1D5A
:10F030001D1D0F940DF220E22093C6008091C000A8
:10F0400086FFFCCF8091C00080648093C000C65DC5
:10F05000DE4F8881CA52D1400F940DF230E23093D6
:10F06000C6008091C00086FFFCCF8091C000806404
:10F070008093C000C45DDE4F8881CC52D1400F9494
:10F080000DF240E24093C6008091C00086FFFCCFA5
:10F090008091C00080648093C000C55DDE4F888190
:10F0A000CB52D1400F940DF250E25093C6008091A4
:10F0B000C00086FFFCCF8091C00080648093C000B8
:10F0C0008FEFE8168FEFF80680E0080780E018075A
:10F0D00031F484E092EE60E00F94C2F1DFC0D80119
:10F0E000C7018070907CA070B0708050904CA040A0
:10F0F000B040D1F52FEF3FE340E050E0E222F322B1
:10F1000004231523CA5DDE4FA880B980CA80DB8046
:10F11000C652D140AE0CBF1CC01ED11EAA0CBB1CD7
:10F12000CC1CDD1C8EE092EE60E00F94C2F1BB2798
:10F13000A12F902F8F2D0F940DF28E2D0F940DF285
:10F1400030E23093C6008091C00086FFFCCF8091F2
:10F15000C00080648093C0004EE34093C60080915D
:10F16000C00086FFFCCF87C08EE09EEFA0E0B0E03D
:10F17000E822F9220A231B239CE0E91694E9F90608
:10F1800090E0090790E0190709F088C0C45DDE4FE0
:10F19000A881CC52D140EA2EFF2400E010E0102FCD
:10F1A0000F2DFE2CEE24C55DDE4FB881CB52D14031
:10F1B000EB0EF11C011D111DD601C501817090706F
:10F1C000A070B070DC0199278827E80EF91E0A1F8D
:10F1D0001B1F20EF30E040E050E0A222B322C42207
:10F1E000D52241E1AA0CBB1CCC1CDD1C4A95D1F7F1
:10F1F000EA0CFB1C0C1D1D1D81E090E0A0E0B0E0BE
:10F20000282239224A225B2235E1220C331C441C7D
:10F21000551C3A95D1F7E20CF31C041D151D57013E
:10F220006801AA0CBB1CCC1CDD1C85E192EE60E0E1
:10F230000F94C2F1C801AA27BB270F940DF2BB2778
:10F24000A12F902F8F2D0F940DF28E2D0F940DF274
:10F2500090E29093C6008091C00086FFFCCF809121
:10F26000C00080648093C000AEE3A093C60080918C
:10F27000C00086FFFCCF8091C00080648093C000F6
:10F28000C601AA27BB270F940DF2BB27AD2D9C2DDD
:10F290008B2D0F940DF28A2D0F940DF20F94DCF14B
:10F2A000CC5DDE4FE881F981C452D140F99709F471
:10F2B0004DCBF4E0EF2EF12C012D112D6E0C7F1CA7
:10F2C000801E911EF2CD83E093EE62E00F94F5F183
:10F2D0008AE192EE60E00F94C2F18091C00087FF56
:10F2E000FCCF1091C6001F751093C6008091C0001E
:10F2F00086FFFCCF8091C00080648093C0000F9493
:10F30000DCF1812F81548A3108F036C1163409F4BA
:10F3100095C0173490F4133409F44EC0143430F40B
:10F320001134F1F0123409F01DC130C0143409F465
:10F3300059C0153409F016C16BC01A3409F4C4C0A1
:10F340001B3438F4173409F48FC0183409F00AC19B
:10F35000A1C01B3409F4D2C01C3409F003C1E8C0B9
:10F360008FEF81B90DC082B1809582B980E090E0C5
:10F37000E0EDF7E03197F1F70196883C9105C1F790
:10F380008091C00087FFEFCF12B8EFC08FEF84B934
:10F390000DC085B1809585B980E090E0E0EDF7E0A3
:10F3A0003197F1F70196883C9105C1F78091C00033
:10F3B00087FFEFCF15B8D9C08FEF87B90DC088B1DF
:10F3C000809588B980E090E0E0EDF7E03197F1F7C3
:10F3D0000196883C9105C1F78091C00087FFEFCF6F
:10F3E00018B8C3C08FEF8AB90DC08BB180958BB9A7
:10F3F00080E090E0E0EDF7E03197F1F70196883C8E
:10F400009105C1F78091C00087FFEFCF1BB8ADC059
:10F410008FEF8DB90DC08EB180958EB980E090E0F0
:10F42000E0EDF7E03197F1F70196883C9105C1F7DF
:10F430008091C00087FFEFCF1EB897C08FEF80BBD1
:10F440000DC081B3809581BB80E090E0E0EDF7E0F6
:10F450003197F1F70196883C9105C1F78091C00082
:10F4600087FFEFCF11BA81C08FEF83BB0DC084B38C
:10F47000809584BB80E090E0E0EDF7E03197F1F714
:10F480000196883C9105C1F78091C00087FFEFCFBE
:10F4900014BA6BC08FEF809301010FC080910201FD
:10F4A00080958093020180E090E0E0EDF7E03197F5
:10F4B000F1F70196883C9105C1F78091C00087FF64
:10F4C000EDCF1092020151C08FEF809304010FC065
:10F4D0008091050180958093050180E090E0E0ED4A
:10F4E000F7E03197F1F70196883C9105C1F78091DB
:10F4F000C00087FFEDCF1092050137C08FEF8093DA
:10F5000007010FC08091080180958093080180E079
:10F5100090E0E0EDF7E03197F1F70196883C910536
:10F52000C1F78091C00087FFEDCF109208011DC088
:10F530008FEF80930A010FC080910B01809580931B
:10F540000B0180E090E0E0EDF7E03197F1F70196F4
:10F55000883C9105C1F78091C00087FFEDCF1092E4
:10F560000B0103C085E292EEEEC98091C00087FFD7
:10F57000FCCF8091C600EAC988E392EEE4C98CE131
:10F5800091EEE1C988249924933011F1943028F444
:10F59000913089F09230B8F408C0953061F195301F
:10F5A000F0F0963009F048C043C02B3109F042C951
:10F5B00091E06BE13FC96227C15DDE4F2883CF52E6
:10F5C000D14092E037C9B22FA0E0622793E032C960
:10F5D000822F90E0A82BB92B622794E02BC92E3004
:10F5E00009F039C3622795E0C05DDE4F19821882A9
:10F5F000C053D1401FC9E1E0F0E0EC0FFD1FC05D3A
:10F60000DE4F08811981C053D140E00FF11F2083E4
:10F610000F5F1F4FC05DDE4F19830883C053D14079
:10F6200062270A171B0709F005C9D80196E002C92D
:10F63000261709F010C303C0973009F0FBC87724E0
:10F640009981933109F412C19431C8F4963009F4C8
:10F65000D8C0973050F4923009F406C1933009F4C1
:10F660006DC0913009F059C253C0913109F477C08F
:10F67000923108F0BBC0903109F04FC2F5C098310B
:10F6800009F487C0993150F4953109F4EFC09531F0
:10F6900008F4C6C1963109F040C2C2C19A3109F4DA
:10F6A0006CC09A3108F491C09B3109F45BC09D3164
:10F6B00009F033C29D81903359F48F81882311F46E
:10F6C0009EE11CC0813011F091E018C098E916C08D
:10F6D000892F807591F0903539F4E0E0F0E089E011
:10F6E0008093570094910AC0983539F4E3E0F0E034
:10F6F00089E080935700949101C090E01A821B82A8
:10F700008D818C831D829E831F8227E030E009C299
:10F710001A8288E08B8381E48C8386E58D8382E581
:10F720008E8389E48F8383E5888780E589878FE5E9
:10F730008A8782E38B872BE030E0F3C18A818139AD
:10F7400041F0823941F0803911F48FE005C080E04A
:10F7500003C082E001C08AE01A828B8344C0772410
:10F76000739482C08D81882311F48EE12CC0813086
:10F7700011F081E028C088E926C01A82E1E0F0E0BB
:10F7800089E08093570084918B831C8224E030E0D1
:10F79000C8C18B81803589F48C81883039F4E2E0EE
:10F7A000F0E089E08093570084910DC0E0E0F0E044
:10F7B00089E080935700849106C0E3E0F0E089E09F
:10F7C0008093570084911A82DFCF8D81836C99E0FA
:10F7D000E1E0F0E0082E90935700E89507B600FCB2
:10F7E000FDCF1A821B8223E030E09BC180EC8A832C
:10F7F000CE5CDE4F188219821A821B82C253D1401E
:10F800008EC18A8190E0A0E0B0E0582F44273327D2
:10F8100022278B8190E0A0E0B0E0DC0199278827C7
:10F82000282B392B4A2B5B2B8D8190E0A0E0B0E098
:10F83000282B392B4A2B5B2B8C8190E0A0E0B0E089
:10F84000BA2FA92F982F8827282B392B4A2B5B2BCF
:10F85000220F331F441F551FC05EDE4F288339839C
:10F860004A835B83C052D1401A8259C13A81C95C34
:10F87000DE4F3883C753D140CA5CDE4F1882C6536F
:10F88000D1408B81C82EDD24CA5CDE4F488159816E
:10F89000C653D140C42AD52A933109F082C0CE5C28
:10F8A000DE4F88819981AA81BB81C253D1408050AB
:10F8B000904CA340B04030F583E0CE5CDE4FE88052
:10F8C000F9800A811B81C253D140F70100935B008C
:10F8D00080935700E89507B600FCFDCFCE5CDE4F65
:10F8E000088119812A813B81C253D14000501F4FAA
:10F8F0002F4F3F4FCE5CDE4F088319832A833B8313
:10F90000C253D140C05EDE4F488159816A817B81FC
:10F91000C052D140DE011B9631E08C9111962C91A2
:10F9200011971296C75CDE4F2883C953D140C85C3B
:10F93000DE4F1882C853D14090E0C85CDE4FE881AA
:10F94000F981C853D1408E2B9F2B0C01FA01609393
:10F950005B0030935700E89511244E5F5F4F6F4F67
:10F960007F4F0EEFE02E0FEFF02ECE0CDF1CC114F8
:10F97000D10499F685E0C05EDE4F088119812A81A5
:10F980003B81C052D140F80120935B008093570027
:10F99000E89507B600FCFDCF81E180935700E8951C
:10F9A00035C0C05EDE4F88819981AA81BB81C0527B
:10F9B000D140B695A795979587957C018601ABE0D8
:10F9C000AA2EB12CAC0EBD1E0BC0D5016D915D01F0
:10F9D000C7010F947FFE0894E11CF11C01501040F8
:10F9E0000115110591F7A60160E070E0440F551F65
:10F9F000661F771FC05EDE4FE880F9800A811B8199
:10FA0000C052D1404E0D5F1D601F711F1A82C05E33
:10FA1000DE4F488359836A837B83C052D1407FC0C5
:10FA2000FA80C55CDE4FF882CB53D140C65CDE4F16
:10FA30001882CA53D1408B81C82EDD24C65CDE4FAC
:10FA400008811981CA53D140C02AD12A1A828981DA
:10FA5000BE016D5F7F4F843121F59601C05EDE4FA0
:10FA6000E880F9800A811B81C052D1400BBFF701A9
:10FA700087919691DB018C9311969C936E5F7F4FDB
:10FA8000D801C7010296A11DB11DC05EDE4F88835B
:10FA90009983AA83BB83C052D14022503040F1F6F3
:10FAA00036C0C05EDE4F288139814A815B81C052F9
:10FAB000D1400894C108D108760100E010E0089414
:10FAC000C11CD11C0894E11CF11C011D111DE20E8A
:10FAD000F31E041F151F21BDBB27A52F942F832FB5
:10FAE00082BD2F5F3F4F4F4F5F4FF89A80B5DB01CC
:10FAF0008D93BD012E153F054007510761F7C05E8C
:10FB0000DE4F288339834A835B83C052D1409601FC
:10FB10002D5F3F4FFB01108204C080EC8A8322E0FE
:10FB200030E08BE18093C6008091C00086FFFCCF5F
:10FB30008091C00080648093C000C15DDE4FF88179
:10FB4000CF52D140F093C6008091C00086FFFCCF19
:10FB50008091C00080648093C000432F3093C60022
:10FB60008091C00086FFFCCF8091C00080648093AC
:10FB7000C000922F2093C6008091C00086FFFCCF6A
:10FB80008091C00080648093C0008EE08093C600A6
:10FB90008091C00086FFFCCF8091C000806480937C
:10FBA000C00065E1C15DDE4FE880CF52D1406E25D7
:10FBB00069276427FE01319610C090819093C6009A
:10FBC0008091C00086FFFCCF31968091C000806498
:10FBD0008093C0006927215030402115310569F715
:10FBE0006093C6008091C00086FFFCCF8091C0006A
:10FBF00080648093C00085B1805885B9772081F4F6
:10FC0000C15DDE4F0881CF52D1400F5FC15DDE4F35
:10FC10000883CF52D14090E0A0E0B0E00D941AF4F8
:10FC200027982F9880E090E020ED37E0F901319798
:10FC3000F1F7019684369105C9F700008091C00064
:10FC40008D7F8093C00081E180935700E895EE2777
:10FC5000FF270994FFCF90E00D941AF497FB092E2B
:10FC600007260AD077FD04D02ED006D000201AF443
:10FC7000709561957F4F0895F6F7909581959F4F08
:10FC80000895A1E21A2EAA1BBB1BFD010DC0AA1FDD
:10FC9000BB1FEE1FFF1FA217B307E407F50720F0F5
:10FCA000A21BB30BE40BF50B661F771F881F991F70
:10FCB0001A9469F760957095809590959B01AC01B9
:10FCC000BD01CF010895AA1BBB1B51E107C0AA1FAC
:10FCD000BB1FA617B70710F0A61BB70B881F991FED
:10FCE0005A95A9F780959095BC01CD010895F99991
:10FCF000FECF92BD81BDF89A992780B50895262F31
:10FD0000F999FECF1FBA92BD81BD20BD0FB6F89400
:0EFD1000FA9AF99A0FBE01960895F894FFCF63
:040000033000E000E9
:00000001FF
